:020000040000fa
:10000000f01f002095090000b9100000bb1000008f
:1000100000000000000000000000000000000000e0
:10002000000000000000000000000000b710000009
:100030000000000000000000b7100000990f000051
:10004000b7100000b7100000b7100000b710000094
:10005000b7100000b7100000b7100000b710000084
:10006000b7100000b7100000b7100000b710000074
:10007000b7100000b7100000b7100000b710000064
:10008000b7100000b7100000b7100000b710000054
:10009000b7100000b7100000b7100000b710000044
:1000a000b7100000b7100000b7100000b710000034
:1000b000b7100000b7100000b7100000b710000024
:1000c000b7100000b7100000b7100000b710000014
:1000d000b7100000b7100000b7100000b710000004
:1000e000b7100000b7100000b7100000b7100000f4
:0400f000b710000045
:020000040000fa
:1000f400f8b5c046f8bc08bc9e467047e90a000043
:10010400f8b5c046f8bc08bc9e467047c50a000056
:020000040000fa
:10011400f7b58a8905000c0013075ed44b68002be1
:1001240004dc0b6c002b01dc0020febde76a002f11
:10013400fad000232e682b6041f200031a4092b3d8
:10014400606da3895b0705d56368c01a636b0bb147
:10015400236cc01a0200216a00232800e76ab8470a
:10016400a189431c06d12b681d2b30d82b4ada40b9
:10017400d3072cd50023636023692360cb0404d503
:10018400431c01d12b6803b96065616b2e600029a3
:10019400cad023004433994202d0280000f09aface
:1001a40000206063c1e70123216a2800b847431c8b
:1001b400c7d12b68002bc4d01d2b01d0162b01d125
:1001c4002e60b1e74023a2891343a381ade7402306
:1001d4000b430120a3814042a7e70f69002fa3d05e
:1001e4000b680f60db1b01930023920700d14b695e
:1001f400a360019b002b00dc96e7019b3a00216a77
:100204002800a66ab047002803dc4023a2891343d0
:10021400dfe7019b3f181b1a0193eae70100402026
:020000040000fa
:10022400344b70b51d6806000c0025b1ab6913b9d9
:10023400280000f051fb304b9c420fd16c680c231a
:10024400e25e93b219072cd4d90611d40923336082
:10025400402301201343a381404270bd274b9c429d
:1002640001d1ac68ebe7264b9c42e8d1ec68e6e7a9
:100274005b0712d5616b41b123004433994202d02c
:10028400300000f027fa002363632422a3899343f8
:10029400a38100236360236923600823a289134395
:1002a400a38123695bb940f2802140f20022a38933
:1002b4000b40934203d02100300000f0d1fa012317
:1002c400a28913408bb10023a36063695b42a361dd
:1002d40023690020002bc0d10c23e25e1306bcd599
:1002e40040231343a3810138b7e7920700d463691d
:1002f400a360ede78c000020dc0e0000fc0e000083
:04030400bc0e00002b
:020000040000fa
:1003080070b505000e0018b183690bb900f0e2fa68
:10031800ab69ac6813b9280000f0dcfa294b9c42a1
:1003280019d16c680c23e25e42f200031a4205d12f
:100338001343a381226e244b13402366a3891b0712
:1003480001d52369fbb921002800fff767ffd0b169
:100358000120404270bd1d4b9c4201d1ac68e1e7d1
:100368001b4b9c42ded1ec68dce7013b0136a36005
:10037800002b04daa269934216db0a2914d02368f9
:100388005a1c226019703178a3680029edd1013b0d
:10039800a360002b0fda22000a21280000f082f85f
:1003a800431cd5d00a20d5e72200280000f07af8af
:1003b800431ce8d1cce70a2023685a1c2260187035
:1003c800c8e7c046dc0e0000ffdffffffc0e0000a0
:0403d800bc0e000057
:020000040000fa
:1003dc00700000201c000000000000000000002045
:1003ec000c000000000000008c0000200400000045
:1003fc000100000010000020100000206000000030
:10040c000100000000000000dc0e0000fc0e0000eb
:10041c00bc0e000000000000000000000000000006
:10042c0000000000000000000000000000000000c0
:10043c0000000000000000000000000000000000b0
:10044c0000000000000000000000000000000000a0
:10045c000000000000000000000000000000000090
:10046c0000000000900000200400000000000000cc
:10047c009400002004000000000000000c0000208c
:10048c0004000000000000009800002004000000a0
:10049c0000000000000000000000000022222222c8
:020000040000fa
:1004ac00f8b505000e00140018b183690bb900f003
:1004bc000ffa274b9c4230d16c68a369a360a389c7
:1004cc001b0734d5236993b30c23e25e42f200037d
:1004dc00f7b2f6b21a4234d023682269981a6369cb
:1004ec00984204db2100280000f024fa28bba36802
:1004fc000130013ba36023685a1c22601f706369a2
:10050c00984204d0a389db0719d50a2e17d12100f4
:10051c00280000f00ffa90b10fe00e4b9c4201d175
:10052c00ac68cae70c4b9c42c7d1ec68c5e721000c
:10053c002800fff771fe0028c6d001267642300055
:10054c00f8bd1343a381226e044b13402366c3e70b
:10055c00dc0e0000fc0e0000bc0e0000ffdffffff5
:020000040000fa
:10056c00032370b5cd1c9d43083506000c2d1cd201
:10057c000c25a9421bd8300000f09afd254a1468be
:10058c002100c1b9244c23681bb9300000f0c0fc19
:10059c0020602900300000f0bbfc431c2dd10c2343
:1005ac003000336000f085fd03e0002de1da0c2310
:1005bc003360002070bd0b685b1b1bd40b2b03d965
:1005cc000b60cc18256003e08c420fd1636813607c
:1005dc00300000f06efd200007220b30231d9043ed
:1005ec00c31a002be6d05a42e250e3e74b68636033
:1005fc000c00ede70c004968c3e70323c41c9c43c3
:10060c00a042dfd0211a300000f082fc431cd9d16b
:0c061c00c5e7c0469000002094000020bc
:020000040000fa
:100628000222254b1a760022244b1a74244a254ba1
:100638005a62190008224b681a42fcd141218023d2
:10064800204ad15010008021402243581a42fcd041
:10065800194b20225a633f221a6318003c210422b6
:10066800435c1342fcd102212c23134ad1541000bd
:100678003c210222435c1342fcd10f484021032253
:10068800435c1340032bfbd10f4a0e4b1a6219002f
:1006980004224b681a42fcd14021ac23094ad150ac
:1006a8001000ac21402243581a42fcd047f6ff32d2
:1006b800064b5a617047c0460010004000140040c5
:1006c80005010400001c004007010200000800406a
:020000040000fa
:1006d80070b5050079b10c1f2368002b00dae41807
:1006e800280000f0e7fc1c4a13682bb9636014600b
:1006f800280000f0e0fc70bda34209d92168601809
:100708008342f3d118685b6841182160eee7130053
:100718005a680ab1a242fad919685818a0420bd1ee
:1007280020680918581819608242e1d11068526887
:10073800411819605a60dbe7a04202d90c232b60ec
:10074800d6e721686018824203d1106852684118c0
:0c075800216062605c60cbe79000002034
:020000040000fa
:100764001e4a1f4b70b50021934203d21970013306
:100774009342fbd1002503261a4803684168b3b9a4
:1007840059b383680c30bbb100230022845c9c54b1
:1007940001328a42fad333000b405a1e934189082e
:1007a40059188900401803684168002be8d0826812
:1007b4000c303ab90029e0d059181d7001338b422e
:1007c400fbd1dae70029e0d133000b405a1e9341f4
:1007d4008908591889004018e5e770bd1000002009
:0807e40000000020dc0300000e
:020000040000fa
:1007ec00f8b51c4b07001e68b36913b9300000f054
:1007fc006ff84836b4687368013b03d5336833b17e
:10080c003668f7e70c22a55e6db16434f4e7042179
:10081c00380000f079fa30600028f1d10c23040084
:10082c003b602000f8bd01235b42e38120000123e3
:10083c002566a3812560a560656025616561a5615c
:10084c0008222900583000f0f5fb6563a563a56408
:08085c00e564e6e7a8100000c6
:020000040000fa
:10086400f7b502268b8905000c00334206d023001d
:1008740047332360236101236361f7bd01ab6a46fb
:1008840000f0aef8009907002800fff76dfe30b9bc
:100894000c22a35e9a05f0d41e43a681e7e70d4b14
:1008a400ab628023a28920601343a381009b206153
:1008b4006361019b4bb10e23e15e280000f04cfb09
:1008c40018b10123a2891343a381a0893843a081cd
:0808d400d3e7c046311000001b
:020000040000fa
:1008dc00836913b5040043bb8364c3640365134b82
:1008ec00134a1b6882620193984201d101238361f0
:1008fc002000fff775ff60602000fff771ffa0601c
:10090c002000fff76dff0022e0600421606800f01a
:10091c00aff801220921a06800f0aaf802221221e6
:10092c00e06800f0a5f80123a36113bda810000036
:04093c003110000076
:020000040000fa
:100940000b6970b505000c000bb9002070bd18b123
:1009500083690bb9fff7c2ff0b4b9c4209d16c684e
:100960000c22a35e002bf0d021002800fff7d2fb61
:10097000ece7064b9c4201d1ac68f1e7044b9c428a
:10098000eed1ec68ece7c046dc0e0000fc0e000087
:04099000bc0e000099
:020000040000fa
:1009940010b50c4b03b198470b4b03b19847fff7c5
:1009a400dffe0a4a7f210a4b8b439360094b984729
:1009b400094b03b19847094b03b1984700f092f9ea
:1009c400fee7c046000000000000000000ed00e06b
:1009d40000000000350a00000000000000000000d4
:020000040000fa
:1009e40070b50e001d000e23c95e90b014000029de
:1009f40007da00232b60b3891b0611d440f20043ad
:100a04000fe001aa00f010fa0028f2db4ff2000216
:100a1400029b1340054a9b185a4253412b60ede751
:100a240040230020236010b070bdc04600e0ffffeb
:020000040000fa
:100a340070b500260c4d0d4c641ba410a64209d1c0
:100a44000026fff755fb0a4d0a4c641ba410a6426e
:100a540005d170bdb300eb5898470136eee7b300fb
:100a6400eb5898470136f2e700010000000100004e
:080a7400000100000401000074
:020000040000fa
:100a7c00002310b50400036043608360818103662a
:100a8c00c28103614361836119000822583000f070
:100a9c00d1fa054b24626362044ba362044be362fc
:100aac00044b236310bdc046990d0000b90b000028
:080abc00410d00005110000083
:020000040000fa
:100ac40010b5054c237833b9044b13b1044800e046
:100ad40000bf0123237010bd70000020000000003f
:100ae40000000000034b10b51bb10349034800e0ac
:100af40000bf10bd000000007400002000000000d2
:020000040000fa
:100b0400f7b5040007000026019148340cb9300001
:100b1400febd6368a5680093009b013b009301d56b
:100b24002468f3e7ab89012b08d90e22ab5e0133ad
:100b340004d029003800019b984706436435ebe74d
:020000040000fa
:100b440070b505000c00a8b100f06cf800200a4a4a
:100b540004210726a04208d0137e0b42fcd0138d3b
:100b64002b540130538b3342f4d0001b4342584181
:0c0b7400c0b270bd0020fce7000400428d
:020000040000fa
:100b80000a4b0b4a1a600b4a9a81c02292025a60a1
:100b90001a00d369002bfcd1044a136802210b43cd
:100ba0001360d369002bfcd17047c046000400429b
:080bb0000401314041f1ffff97
:020000040000fa
:100bb800f8b51f008b8905000c001600db0505d56c
:100bc8000e23c95e0022022300f03ef9a389054adc
:100bd80028001340a38132000e23e15e3b0000f0a1
:080be8000ff9f8bdffefffff5c
:020000040000fa
:100bf00070b50c00002519b112b11500022801d9f9
:100c0000280070bd074b23b11100200000e000bf99
:100c1000f6e716002078013e00f0d9f90134002ee5
:080c2000f8d1ede7000000002f
:020000040000fa
:100c28000a4b588b0723184000b97047074b80229e
:100c38001a7607225a831b7e5b07f6d5034b0421dd
:100c48001a8d1a7e0a42fbd1efe7c0460004004223
:020000040000fa
:100c580030b570b179b105004118084a0124137ef6
:100c68002342fcd02b7813850135a942f7d1012006
:100c780030bd0020fce70120fae7c046000400422e
:020000040000fa
:100c880010b50422094b5a6000f096f800f072f98a
:100c9800fff7c6fc00f0b8f900f008fafff76cffa0
:100ca80000f09cf800f0dcf910bdc046004000419f
:020000040000fa
:100cb800094b1b68db439b0700d07047074b9968bb
:100cc80040f2e8335843b0fbf3f0044a93685b1ae8
:100cd8009842fbd8f1e7c04610e000e00000002091
:020000040000fa
:100ce80070b50020fff7ccff00f07af9054800f056
:100cf80081f9054d8024ec6140f2e830fff7d8ff18
:0c0d0800f9e7c046201000000032004057
:020000040000fa
:100d140070b564254a1e55430e0029007031fff753
:100d240023fc040040b100212a00016046600c301d
:0c0d3400a060643200f082f9200070bd65
:020000040000fa
:100d400070b50c000e25495f00f082f8a389421ca3
:100d500003d1054a1340a38170bd41f20002134341
:0c0d6000a3816065f8e7c046ffefffffcd
:020000040000fa
:100d6c00074a13684bb107491818884202d810601b
:100d7c001800704701204042fbe7034b1360f2e779
:0c0d8c0098000020a0020020a000002021
:020000040000fa
:100d980070b50c000e25495f00f068f8002803dbe9
:100da800636d1b18636570bda389024a1340a38154
:080db800f9e7c046ffefffff61
:020000040000fa
:100dc000074b00221a819a7901210a439a71022263
:100dd0009a70190001228b791342fcd07047c046eb
:040de00000040040cb
:020000040000fa
:100de400064a00231360936047f6ff4151600621d1
:100df4001160034a936013607047c04610e000e03e
:040e040000000020ca
:020000040000fa
:100e080070b50500080011000022054c22601a0088
:100e180000f03ef9431c02d1236803b12b6070bd7a
:040e28000c0000209a
:020000040000fa
:100e2c00002370b5064c050008001100236000f08b
:100e3c001df9431c02d1236803b12b6070bdc04661
:040e4c000c00002076
:020000040000fa
:100e500070b50500080011000022054c22601a0040
:100e600000f012f9431c02d1236803b12b6070bd5e
:040e70000c00002052
:020000040000fa
:100e740070b50500080011000022054c22601a001c
:100e840000f004f9431c02d1236803b12b6070bd48
:040e94000c0000202e
:020000040000fa
:100e980070b5002661b15ab1160048b90c001500aa
:100ea800012000f083f8013d20700134002df7d1b6
:040eb800300070bdd9
:020000040000fa
:100ebc000000000000000000000000000000000026
:100ecc000000000000000000000000000000000016
:020000040000fa
:100edc000000000000000000000000000000000006
:100eec0000000000000000000000000000000000f6
:020000040000fa
:100efc0000000000000000000000000000000000e6
:100f0c0000000000000000000000000000000000d5
:020000040000fa
:100f1c00002370b5054c050008002360fff720ff87
:100f2c00431c02d1236803b12b6070bd0c00002060
:020000040000fa
:100f3c00002370b5054c05000800236000f092f802
:100f4c00431c02d1236803b12b6070bd0c00002040
:020000040000fa
:100f5c00002370b5054c05000800236000f08af8ea
:100f6c00431c02d1236803b12b6070bd0c00002020
:020000040000fa
:100f7c00054b80221a60012258215a5459215a5487
:0c0f8c0022213c229954704700320040a2
:020000040000fa
:100f980010b5054b9a6801329a601b6813b1024a72
:0c0fa8005068984710bdc04600000020b3
:020000040000fa
:100fb40000b583b000230193012101a8fff7c0fd10
:0a0fc4000028f9d0019803b000bd29
:020000040000fa
:100fce0000b583b06b46d87101216b46d81dfff773
:0a0fde003cfe0028f8d003b000bd6f
:020000040000fa
:100fe800034b00229a601a6801210a431a6070476d
:040ff80010e000e025
:020000040000fa
:100ffc0010b5034b01001868fff780f910bdc0460f
:04100c008c00002034
:020000040000fa
:10101000024b02225a6001221a72704700500041ae
:020000040000fa
:1010200068656c6c6f20776f726c64210000c0463d
:020000040000fa
:1010300010b50249fff766fd10bdc046410900002a
:020000040000fa
:1010400003008218934200d1704719700133f9e709
:020000040000fa
:0c10500010b50e23c95efff771ff10bd44
:020000040000fa
:0c105c0042f2000300204b607047c046c9
:020000040000fa
:08106800bff35f8f62b6704711
:020000040000fa
:0810700010b500f015f810bde9
:020000040000fa
:0810780010b5fff7efff10bdfa
:020000040000fa
:0810800010b500f013f810bddb
:020000040000fa
:0810880010b500f011f810bdd5
:020000040000fa
:0810900010b5fff701ff10bdd0
:020000040000fa
:0810980010b5fff7a9fd10bd22
:020000040000fa
:0810a000012040427047c046e8
:020000040000fa
:0410a8001000002014
:020000040000fa
:0410ac000120704768
:020000040000fa
:0410b0000020704765
:020000040000fa
:0210b400704783
:020000040000fa
:0210b600fee753
:020000040000fa
:0210b800fee751
:020000040000fa
:0210ba00fee74f
:020000040000fa
:0210bc0070477b
:020000040000fa
:0210be00704779
:020000040000fa
:0200000400807a
:044000007f43ffb14a
:020000040000fa
:0200000400807a
:04400400bbfcffff03
:00000001FF
