:10000000F01F0020B10200002306000025060000BA
:1000100000000000000000000000000000000000E0
:1000200000000000000000000000000021060000A9
:100030000000000000000000210600005105000043
:10004000210600002106000021060000000000003B
:10005000210600002106000021060000000000002B
:1000600021060000210600002106000021060000F4
:1000700021060000210600002106000021060000E4
:1000800021060000210600002106000021060000D4
:100090002106000021060000000000000000000012
:1000A0000000000000000000210600002106000002
:1000B00021060000210600002106000021060000A4
:1000C0002106000021060000210600002106000094
:1000D0002106000021060000210600002106000084
:1000E0002106000021060000210600002106000074
:1000F00021060000F8B5C046F8BC08BC9E46704713
:100100006D030000F8B5C046F8BC08BC9E467047B9
:10011000490300000222284B1A760022274B1A744A
:10012000274A284B5A62190008224B681A42FCD110
:1001300041218023234AD15010008021402243587E
:100140001A42FCD01C4B20225A633F221A6318002B
:100150003C210422435C1342FCD102212C23164A89
:10016000D15410003C210222435C1342FCD11248BE
:1001700040210322435C1340032BFBD1124A114B55
:100180001A62190004224B681A42FCD140218C23C8
:100190000C4AD15010008C21402243581A42FCD006
:1001A0004021AC23074AD1501000AC2140224358D3
:1001B0001A42FCD07047C0460010004000140040B6
:1001C00005010400001C0040070102001E4A1F4BED
:1001D00070B50021934203D2197001339342FBD1D1
:1001E000002503261A4803684168B3B959B38368E8
:1001F0000C30BBB100230022845C9C5401328A4243
:10020000FAD333000B405A1E9341890859188900CC
:10021000401803684168002BE8D082680C303AB976
:100220000029E0D059181D7001338B42FBD1DAE769
:100230000029E0D133000B405A1E93418908591818
:1002400089004018E5E770BD6C0000200000002028
:100250008803000010B5134A137801210B43137073
:10026000110001224B681A42FCD10E490E4BCB61A2
:10027000202008610D4B10221A721A751A542C2472
:100280001A5538241A5544241A5550241A555C24FA
:100290001A5508640B78022213430B704B681A42FC
:1002A000FCD110BD002A0040010090000C0000208D
:1002B00010B50C4B03B198470B4B03B19847FFF7B0
:1002C00085FF0A4A7F210A4B8B439360094B98476D
:1002D000094B03B19847094B03B1984700F0ACF8BC
:1002E000FEE7C046000000000000000000ED00E056
:1002F00000000000010300000000000000000000FA
:1003000070B500260C4D0D4C641BA410A64209D1FB
:100310000026FFF7EFFE0A4D0A4C641BA410A6420C
:1003200005D170BDB300EB5898470136EEE7B30036
:10033000EB5898470136F2E7000100000001000089
:10034000000100000401000010B5054C237833B90A
:10035000044B13B1044800E000BF0123237010BD1B
:100360006C0000200000000000000000034B10B5EE
:100370001BB10349034800E000BF10BD00000000AE
:1003800070000020000000006C0000201C00000035
:1003900000000000880000200400000000000000B1
:1003A000000000200C000000000000000C000020F5
:1003B00060000000000000000000000000000000DD
:1003C00022222222222222220C4B80221A600C4A54
:1003D0001A61012250215A5451215A5458215A5419
:1003E00059215A5407215B229954222238215A5408
:1003F0003C215A54B0221205DA66704700320040A0
:100400008000000810B504220A4B5A6000F072F810
:10041000FFF7DAFFFFF77EFE00F0D6F800F03FF8B6
:1004200000F056F8FFF716FF00F0F2F800F038F889
:1004300010BDC0460050004110B582B00020FFF74B
:10044000E1FF48F200031B6883F3888848F2040345
:100450001B680193019C64086400200021002200B5
:10046000230000F003F8012002B010BDE0B54546BE
:100470004E465746E0B45D4620B4254626462746FC
:10048000A046A146A246A346A44684F30088A447FA
:1004900020BCAB46E0BCBA46B146A846E0BD7047BA
:1004A000BFF35F8F62B6094B40F204301A58120254
:1004B000120AC02109060A431A508020186040F22F
:1004C00080229958014399509B58704700E100E001
:1004D000054A0023136093600449516006211160AE
:1004E000034A93601360704710E000E0FFD33000D0
:1004F00000000020074B00221A819A7901210A434B
:100500009A7102229A70190001228B791342FCD051
:100510007047C0460004004010B500F06DF80020A0
:10052000010002000300844610BC01BC864680F333
:100530000088044710B500F033F8002001000200E5
:100540000300844610BC01BC864680F30088044743
:1005500010B5054B9A6801329A601B6813B1024AC4
:100560005068984710BDC0460000002010B500F04C
:1005700055F8010002000300844610BC02BC864608
:1005800081F300880C4710B500F02EF8010002003E
:100590000300844610BC02BC864681F300880C47E9
:1005A00010B50021024800F02DF800F003F810BD4E
:1005B000D9050000034B00229A601A6801210A4302
:1005C0001A60704710E000E0024B02225A600122DC
:1005D0001A72704700500041024A136801331360D9
:1005E0007047C04688000020024B18680A2390FB21
:1005F000F3F07047880000208022014BDA617047D9
:1006000000320040014B1860596070470000002024
:100610008022014B9A6170470032004040187047B9
:06062000FEE7FEE7FEE725
:107E00007FE97FE9F8F796BB7FE97FE9F8F7BBBB2D
:107E10007FE97FE9F8F7AABB7FE97FE9F8F77CBB48
:10800000F83F00209D920000BF990000739A000085
:108010000000000000000000000000000000000060
:108020000000000000000000000000004F9700006A
:1080300000000000000000004F970000C199000000
:108040000000000000000000000000004F9700004A
:10805000000000000000000000000000ED920000A1
:108060000000000000000000000000000000000010
:108070000000000000000000000000000000000000
:1080800000000000000000000000000000000000F0
:1080900000000000000000004F9700004F97000014
:1080A0004F9700004F970000000000000000000004
:1080B00000000000000000000000000000000000C0
:1080C00000000000000000000000000000000000B0
:1080D00000000000000000000000000000000000A0
:1080E0000000000000000000000000000000000090
:1080F00000000000F8B5C046F8BC08BC9E467047BA
:10810000CD940000F8B5C046F8BC08BC9E46704748
:10811000A9940000F0B59BB00490039117001C00D7
:1081200020B1836905930BB901F05CF8914B039A78
:108130009A425ED1049B5B680393039B9B891B0758
:1081400065D5039B1B690593002B60D000220D921F
:10815000202208AB5A7630229A763D002B78002BED
:108160005FD1EE1B66B133003A000399049801F029
:1081700055F9431C00D153E10D9B9E1905930D96B3
:108180002B78002B00D14BE1012208AE52427260E5
:108190005322002304A9784F521801350893F36045
:1081A000B3601370223705222978380001F056FC9D
:1081B0006A1C002839D13068C30604D55323202116
:1081C00004AFDB191970030704D553232B2104AF27
:1081D000DB1919702B782A2B2FD000200A21F36885
:1081E0002A78303A092A00D86FE000282CD0F360B2
:1081F0002AE0624B039A9A4202D1049B9B689BE758
:108200005F4B039A9A4298D1049BDB6894E70399E9
:10821000049800F057FC002898D0012040421BB081
:10822000F0BD252B9DD0013598E70123C01B83406D
:10823000316815000B433360B5E72368211D002B1F
:108240003DDBF36015000C002B782E2B0AD16B78E8
:108250006A1C2A2B41D122680235231D002A39DBF2
:108260001C007260444F297828370322380001F03F
:10827000F5FB30B14023C01B834032680135134306
:10828000336029786F1C3C4D062228002C30317653
:1082900001F0E4FB5321327E04ABC918692A32D0C5
:1082A0003ED8582A00D1C2E029D8002A00D1F0E0F7
:1082B000522304A81B181A7001230C934FE05B4251
:1082C000F360022303433360BCE74B4301359B1843
:1082D000012085E701225242C2E7002315000A204F
:1082E0001A00736029783039092903D9002BB9D0D5
:1082F0007260B7E74243013552180123F2E7632A5F
:1083000025D0642AD4D10898221D03062DD52368D0
:108310001400002B02DA2D225B420A700A223EE092
:10832000702A00D18DE007D86F2AC1D1089B211D8A
:10833000180627D5236829E0752AF7D0782AB7D1FF
:108340005523782204A95B181A70113573E0522363
:1083500004AA9B18227804341A7001233361002385
:1083600052260B7004ABF6183CE023684006CFD5CC
:108370001BB2CDE7E09800000C96000000990000C9
:10838000C09800005B06D5D523689BB20C006F2A0D
:108390006ED00A225321002004AE89190870099971
:1083A0000A91002900DA8EE00420089E8643089690
:1083B000002B5FD1002900D087E0532604ABF618CC
:1083C000082A0AD1089B0593DB0706D5099A0C9B5E
:1083D0009A4202DC3023013E3370532304AA9B18D7
:1083E0009B1B0C933C4B07AA009308A9039B049882
:1083F00000F0DAFB431C13D00C9B32000399049865
:1084000001F00CF8431C0BD0089B002505939B073B
:108410004DD4079A0B9B934200DA13005A1C4DD19E
:10842000039B0D989B895B0600D4F8E6F5E655237F
:1084300004A95B181A70089A211D130606D5236833
:1084400008E0202332681343336079E75306F6D5FA
:1084500023689BB20C00D10702D520210A43089261
:108460001022002B96D1202108988843089091E78C
:1084700008228FE7532604A97618B3FBF2F1100007
:1084800048431B1AEB5C013E33700B000029F4D10A
:1084900096E732610E00A5E7292204A901235218AC
:1084A0000498039900F0BAFF431CB9D001350B9B27
:1084B000079A05939B1A9D42EEDBAAE70D9AD31803
:1084C00005920D9349E6002BD4D1522604ABF61841
:1084D0002B78337074E7C0461D9400003C220020C6
:1084E0001C00000000000000002000200C00000024
:1084F000000000000C2000206000000000000000D0
:10850000582200200400000001000000DC210020AF
:10851000DC210020600000000100000000000000DD
:10852000E098000000990000C098000000000000E2
:10853000000000000000000000000000000000003B
:10854000000000000000000000000000000000002B
:10855000000000000000000000000000000000001B
:10856000000000000000000000000000000000000B
:108570000000000000000000000000005C2200205D
:108580000400000000000000602200200400000041
:1085900000000000702000206C01000001000000BD
:1085A0004300000000000000000000000000000088
:1085B00000000000000000000000000000000000BB
:1085C0004300000000000000000000000000000068
:1085D000000000000000000000000000000000009B
:1085E0004300000000000000000000000000000048
:1085F000000000000000000000000000000000007B
:108600004300000000000000000000000000000027
:10861000000000000000000000000000000000005A
:108620004300000000000000000000000000000007
:10863000000000000000000000000000000000003A
:1086400043000000000000000000000000000000E7
:10865000000000000000000000000000000000001A
:1086600043000000000000000000000000000000C7
:1086700000000000000000000000000000000000FA
:10868000459A00008199000000000000C0890000A8
:10869000119B0000109B0000109B0000109B00002D
:1086A000109B0000109B0000109B0000109B00001E
:1086B000109B0000109B0000FFFFFFFFFFFFFFFF6C
:1086C000FFFFFFFFFFFF0000010041534349490046
:1086D000000000000000000000000000000000009A
:1086E0000000000000000000000041534349490021
:1086F000000000000000000000000000000000007A
:108700000000000000000000000000006C200020BD
:1087100004000000000000006422002004000000AB
:10872000000000000000000000000000256473202D
:1087300068617320656C617073656420696E207375
:10874000656375726520776F726C640A00000000C3
:108750000A0A00002A2A2A2A2A2A2A2A2A2A2A2A0D
:108760002A2A2A2A2A2A2A2A2A2A2A2A2A2A2A2A69
:108770002A2A2A2A2A2A2A2A2A2A2A2A2A2A2A2A59
:108780002A2A2A2A2A2A2A2A2A2A2A2A2A2A2A2A49
:108790002A2A00004D616B65727320646576656CF2
:1087A0006F70656420612073656375726520706CFD
:1087B0006174666F726D20647572696E6720434FD5
:1087C0005649442D313920706572696F6420746F89
:1087D00000000000737570706F727420636F6D6DB0
:1087E000756E697469657320616E6420646576696D
:1087F0006365206D616E7566616374757265727311
:10880000206F6E2072652D7468696E6B696E6700EB
:1088100073656375726974792073747261746567C6
:1088200069657320666F7220746865697220667569
:10883000747572652070726F6475637420726F61F5
:10884000646D61700A000000547275737469667912
:10885000207465616D3A204A616E75732C204D61FC
:1088600074686961732C20616E64204861690A0034
:10887000426F6172642054657374206170706C691A
:10888000636174696F6E0A0056657273696F6E3A40
:1088900020253032642E253032640A004E6F6E5F20
:1088A00073656375726520776F726C640000C046F3
:1088B000F7B58A8905000C0013075ED44B68002BBE
:1088C00004DC0B6C002B01DC0020FEBDE76A002FEE
:1088D000FAD000232E682B6041F200031A4092B3B5
:1088E000606DA3895B0705D56368C01A636B0BB124
:1088F000236CC01A0200216A00232800E76AB847E7
:10890000A189431C06D12B681D2B30D82B4ADA4095
:10891000D3072CD50023636023692360CB0404D5DF
:10892000431C01D12B6803B96065616B2E6000297F
:10893000CAD023004433994202D0280000F012FB31
:1089400000206063C1E70123216A2800B847431C67
:10895000C7D12B68002BC4D01D2B01D0162B01D101
:108960002E60B1E74023A2891343A381ADE74023E2
:108970000B430120A3814042A7E70F69002FA3D03A
:108980000B680F60DB1B01930023920700D14B693A
:10899000A360019B002B00DC96E7019B3A00216A53
:1089A0002800A66AB047002803DC4023A2891343AD
:1089B000DFE7019B3F181B1A0193EAE70100402003
:1089C000002020202020202020202828282828209F
:1089D0002020202020202020202020202020202097
:1089E00020881010101010101010101010101010FF
:1089F00010040404040404040404041010101010EF
:108A000010104141414141410101010101010101B8
:108A1000010101010101010101010101101010100A
:108A2000101042424242424202020202020202028A
:108A300002020202020202020202020210101010DE
:108A40002000000000000000000000000000000006
:108A50000000000000000000000000000000000016
:108A60000000000000000000000000000000000006
:108A700000000000000000000000000000000000F6
:108A800000000000000000000000000000000000E6
:108A900000000000000000000000000000000000D6
:108AA00000000000000000000000000000000000C6
:108AB00000000000000000000000000000000000B6
:018AC00000B5
:108AC2007047344B70B51D6806000C0025B1AB69C8
:108AD20013B9280000F085FB304B9C420FD16C6823
:108AE2000C23E25E93B219072CD4D90611D40923C0
:108AF2003360402301201343A381404270BD274BC2
:108B02009C4201D1AC68EBE7264B9C42E8D1EC6871
:108B1200E6E75B0712D5616B41B12300443399420A
:108B220002D0300000F01DFA002363632422A389DF
:108B32009343A38100236360236923600823A289EE
:108B42001343A38123695BB940F2802140F20022E2
:108B5200A3890B40934203D02100300000F005FBB3
:108B62000123A28913408BB10023A36063695B4296
:108B7200A36123690020002BC0D10C23E25E1306FF
:108B8200BCD540231343A3810138B7E7920700D431
:108B92006369A360EDE758220020E0980000009985
:108BA2000000C0980000F7B5150001938A680B69B0
:108BB20000900C00934200DA130022002B60433233
:108BC20012780AB101332B6023689B0602D52B6809
:108BD20002332B60062723681F403FB32300433331
:108BE2001B785A1E93412268920630D422000199C2
:108BF20043320098089EB047431C25D006232068C4
:108C02002A68E16803400025042B03D18D1AEB4347
:108C1200DB171D40A3682269934201DD9B1AED1800
:108C22000027BD4220D1002010E00137E3682A6806
:108C32009B1A9F42D2DA220001231932019900982D
:108C4200089EB047431CF0D101204042FEBD3020B7
:108C5200E1184331087021005A1C45310978A218E5
:108C6200433202331170C1E7220001231A32019903
:108C72000098089EB047431CE6D00137D1E770B593
:108C820005000E0018B183690BB900F0AAFAAB69AE
:108C9200AC6813B9280000F0A4FA294B9C4219D100
:108CA2006C680C23E25E42F200031A4205D11343C0
:108CB200A381226E244B13402366A3891B0701D58F
:108CC2002369FBB921002800FFF7FBFED0B1012088
:108CD200404270BD1D4B9C4201D1AC68E1E71B4B89
:108CE2009C42DED1EC68DCE7013B0136A360002B3D
:108CF20004DAA269934216DB0A2914D023685A1CAB
:108D0200226019703178A3680029EDD1013BA3607C
:108D1200002B0FDA22000A21280000F01AF8431C67
:108D2200D5D00A20D5E72200280000F012F8431C13
:108D3200E8D1CCE70A2023685A1C22601870C8E7E1
:108D4200C046E0980000FFDFFFFF00990000C098D6
:108D52000000F8B505000E00140018B183690BB9C4
:108D620000F03FFA274B9C4230D16C68A369A360A4
:108D7200A3891B0734D5236993B30C23E25E42F225
:108D82000003F7B2F6B21A4234D023682269981A65
:108D92006369984204DB2100280000F054FA28BBE2
:108DA200A3680130013BA36023685A1C22601F7034
:108DB2006369984204D0A389DB0719D50A2E17D11B
:108DC2002100280000F03FFA90B10FE00E4B9C42C8
:108DD20001D1AC68CAE70C4B9C42C7D1EC68C5E72D
:108DE20021002800FFF76DFE0028C6D0012676423A
:108DF2003000F8BD1343A381226E044B1340236657
:108E0200C3E7E098000000990000C0980000FFDF6F
:108E1200FFFF032370B5CD1C9D43083506000C2DC2
:108E22001CD20C25A9421BD8300000F098FE254A1E
:108E320014682100C1B9244C23681BB9300000F02A
:108E42006EFD20602900300000F069FD431C2DD129
:108E52000C233000336000F083FE03E0002DE1DAE2
:108E62000C233360002070BD0B685B1B1BD40B2BE3
:108E720003D90B60CC18256003E08C420FD16368E4
:108E82001360300000F06CFE200007220B30231D1F
:108E92009043C31A002BE6D05A42E250E3E74B68F4
:108EA20063600C00EDE70C004968C3E70323C41CB0
:108EB2009C43A042DFD0211A300000F030FD431C59
:108EC200D9D1C5E7C0465C2200206022002070B5DF
:108ED200002000F0D8FD1D4C2000243000F0E7FDFA
:108EE20025002835280000F0E2FD2000683000F05F
:108EF200DEFD174C2000283000F0D9FD2000643040
:108F020000F0D5FD144C20001C3000F0D0FD2000F4
:108F1200443000F0CCFD20005C300022012100F042
:108F2200BEFC280000F0C3FD2000703000F0BFFD41
:108F3200FEF765FF0021084800F0D3FD00F0ADFD0B
:108F420000220649052000F016FCFEE7C0462C87E9
:108F52000000AC8700002C880000159B0000759A69
:108F6200000070B5050079B10C1F2368002B00DAF0
:108F7200E418280000F0F3FD1C4A13682BB9636063
:108F82001460280000F0ECFD70BDA34209D92168ED
:108F920060188342F3D118685B6841182160EEE7DC
:108FA20013005A680AB1A242FAD919685818A042A5
:108FB2000BD120680918581819608242E1D1106853
:108FC2005268411819605A60DBE7A04202D90C23AB
:108FD2002B60D6E721686018824203D1106852687C
:108FE2004118216062605C60CBE75C2200201E4A6F
:108FF2001F4B70B50021934203D219700133934283
:10900200FBD1002503261A4803684168B3B959B356
:1090120083680C30BBB100230022845C9C54013273
:109022008A42FAD333000B405A1E934189085918D9
:109032008900401803684168002BE8D082680C3030
:109042003AB90029E0D059181D7001338B42FBD187
:10905200DAE70029E0D133000B405A1E9341890818
:10906200591889004018E5E770BD702000200020E3
:109072000020DC840000F0B585B001900E001400E1
:1090820000F0ABFC01281AD1731EFE2B17D8050085
:1090920002AB1E710027AF4220D003ABD95DA3689B
:1090A200013BA360002B04DAA269934219DB0A296F
:1090B20017D023685A1C226019700137EBE723008E
:1090C2003200583303A9019800F0CBF90500431C84
:1090D200E0D140230600A2891343A381300005B0EA
:1090E200F0BD22000198FFF734FE431CE5D10600D3
:1090F200F4E7F8B51C4B07001E68B36913B93000DA
:1091020000F06FF84836B4687368013B03D53368E2
:1091120033B13668F7E70C22A55E6DB16434F4E72B
:109122000421380000F0BBFA30600028F1D10C2392
:1091320004003B602000F8BD01235B42E381200074
:1091420001232566A3812560A560656025616561AF
:10915200A56108222900583000F0BBFC6563A563B5
:10916200A564E564E6E7549B0000F7B502268B8907
:1091720005000C00334206D02300473323602361ED
:1091820001236361F7BD01AB6A4600F0D6F800998E
:1091920007002800FFF73DFE30B90C22A35E9A05B6
:1091A200F0D41E43A681E7E70D4BAB628023A28970
:1091B20020601343A381009B20616361019B4BB13B
:1091C2000E23E15E280000F0CAFB18B10123A28938
:1091D2001343A381A0893843A081D3E7C046C59A2F
:1091E2000000836913B5040043BB8364C364036551
:1091F200134B134A1B6882620193984201D10123E7
:1092020083612000FFF775FF60602000FFF771FFA8
:10921200A0602000FFF76DFF0022E060042160687B
:1092220000F0D7F801220921A06800F0D2F802224A
:109232001221E06800F0CDF80123A36113BD549B15
:109242000000C59A00000B6970B505000C000BB94F
:10925200002070BD18B183690BB9FFF7C2FF0B4B39
:109262009C4209D16C680C22A35E002BF0D0210035
:109272002800FFF71CFBECE7064B9C4201D1AC68CF
:10928200F1E7044B9C42EED1EC68ECE7C046E09873
:10929200000000990000C098000010B50C4B03B10B
:1092A20098470B4B03B19847FFF7A1FE0A4A7F216B
:1092B2000A4B8B439360094B9847094B03B198477C
:1092C200094B03B19847FFF702FEFEE7C0460000D4
:1092D20000000000000000ED00E0008000008D931F
:1092E20000000000000000000000F0B5C64600B516
:1092F200104D0424104E012705E0434673610C35DE
:109302000134082C11D02B0038331A78E3B29A4278
:10931200F5D173693A00A24090461A42EFD02B6B06
:10932200002BEAD0686B9847E7E704BC9046F0BD93
:10933200C0460C2000200028004070B50E001D0021
:109342000E23C95E90B01400002907DA00232B60B7
:10935200B3891B0611D440F200430FE001AA00F0CA
:1093620056FA0028F2DB4FF20002029B1340054A34
:109372009B185A4253412B60EDE7402300202360A3
:1093820010B070BDC04600E0FFFF70B500260C4D66
:109392000D4C641BA410A64209D10026FEF7A9FEBB
:1093A2000A4D0A4C641BA410A64205D170BDB3003D
:1093B200EB5898470136EEE7B300EB589847013671
:1093C200F2E70081000000810000008100000481BA
:1093D2000000002310B504000360436083608181B4
:1093E2000366C28103614361836119000822583018
:1093F20000F06FFB054B24626362044BA362044BD3
:10940200E362044B236310BDC046A19700009D9503
:109412000000CD960000F19A0000F8B50D00096E2B
:1094220006001400D718890418D59F08BF00D71961
:10943200BC4201D1002008E02A0002CC300000F03A
:10944200AEFA431CF4D101204042F8BD21782A0033
:10945200300000F066F90134431CF4D0BC42F5D16F
:10946200E8E77FB51D000D4B04001B681B6A81B93C
:1094720003B90B4BE0331E6800222B0001A9200028
:10948200B047431C03D100232B608A23236004B01E
:1094920070BD03B9034BE0331E682B00EFE758227F
:1094A20000207020002010B5054C237833B9044BFE
:1094B20013B1044800E000BF0123237010BD3C2219
:1094C20000200000000000000000034B10B51BB19B
:1094D2000349034800E000BF10BD00000000402225
:1094E200002000000000F7B50400070000260191EB
:1094F20048340CB93000FEBD6368A5680093009B38
:10950200013B009301D52468F3E7AB89012B08D90D
:109512000E22AB5E013304D029003800019B98472C
:1095220006436435EBE770B505000C00A8B100F006
:1095320086F800200A4A04210726A04208D0137E9A
:109542000B42FCD0138D2B540130538B3342F4D099
:10955200001B43425841C0B270BD0020FCE700042A
:1095620000420A4B0B4A1A600B4A9A81C0229202AD
:109572005A601A00D369002BFCD1044A13680221F5
:109582000B431360D369002BFCD17047C046000423
:1095920000420401314041F1FFFFF8B51F008B8901
:1095A20005000C001600DB0505D50E23C95E00225E
:1095B200022300F03EF9A389054A28001340A38143
:1095C20032000E23E15E3B0000F00FF9F8BDFFEF21
:1095D200FFFF70B50C00002519B112B11500022869
:1095E20001D9280070BD074B23B11100200000E013
:1095F20000BFF6E716002078013E00F009FA0134B8
:10960200002EF8D1EDE7000000003031323334355E
:1096120036373839414243444546003031323334DB
:10962200353637383961626364656600232D302B25
:0D9632002000686C4C0065666745464700E7
:109640000A4B588B0723184000B97047074B8022FC
:109650001A7607225A831B7E5B07F6D5034B04213B
:109660001A8D1A7E0A42FBD1EFE7C0460004004281
:1096700030B570B179B105004118084A0124137E54
:109680002342FCD02B7813850135A942F7D1012064
:1096900030BD0020FCE70120FAE7C046000400428C
:1096A00070B564254A1E55430E0029007031FFF73E
:1096B000B1FB040040B100212A00016046600C307B
:1096C000A060643200F006FA200070BD70B50C0096
:1096D0000E25495F00F0AEF8A389421C03D1054A6C
:1096E0001340A38170BD41F200021343A381606562
:1096F000F8E7C046FFEFFFFF074A13684BB1074981
:109700001818884202D810601800704701204042A3
:10971000FBE7034B1360F2E7642200207024002073
:1097200070220020936810B5013B9360002B05DA8E
:109730009469A34208DBCBB20A2B05D01368581CEE
:1097400010601970C8B210BDFFF704FBFBE7FEE71D
:10975000084B10221A721A7520215A542C215A547F
:1097600038215A5405204421585450215A545C2120
:109770005A5470470C20002030B543001B189B0042
:10978000064CE3181B7A834200D030BD43001D18FD
:10979000AD00295160194260F7E7C0460C20002057
:1097A00070B50C000E25495F00F056F8002803DB69
:1097B000636D1B18636570BDA389024A1340A381C2
:1097C000F9E7C046FFEFFFFF054A002313609360EF
:1097D0000449516006211160034A93601360704789
:1097E00010E000E0FF23F4000020002070B5050029
:1097F000080011000022054C22601A0000F0A2F9B6
:10980000431C02D1236803B12B6070BD6C20002083
:10981000002370B5064C050008001100236000F01D
:1098200081F9431C02D1236803B12B6070BDC0468F
:109830006C20002070B50500080011000022054CC6
:1098400022601A0000F076F9431C02D1236803B1AC
:109850002B6070BD6C20002070B505000800110061
:109860000022054C22601A0000F068F9431C02D166
:10987000236803B12B6070BD6C20002070B50026FA
:1098800061B15AB1160048B90C001500012000F072
:10989000B3F8013D20700134002DF7D1300070BDC8
:1098A0000FB407B5054B04AA1B6802CA9868019259
:1098B00000F0BCF803B008BC04B0184758220020E0
:1098C0000000000000000000000000000000000098
:1098D0000000000000000000000000000000000088
:1098E0000000000000000000000000000000000078
:1098F0000000000000000000000000000000000068
:109900000000000000000000000000000000000057
:109910000000000000000000000000000000000047
:10992000002370B5054C050008002360FFF7E4FE36
:10993000431C02D1236803B12B6070BD6C20002052
:10994000002370B5054C05000800236000F0E6F820
:10995000431C02D1236803B12B6070BD6C20002032
:10996000002370B5054C05000800236000F0DEF808
:10997000431C02D1236803B12B6070BD6C20002012
:1099800082B001B901A910002AB133B113780B607C
:109990001078431E984102B0704702204042FAE717
:1099A00010B50C23D45E42F200031C4204D11C43C8
:1099B0009481146E23431366FFF75EFB10BDFEE730
:1099C00010B5054B9A6801329A601B6813B1024AC0
:1099D0005068984710BDC04600200020044B1B680B
:1099E0001B6A03B9034B40F22812985C7047C046CB
:1099F000582200207020002000B583B0002301937E
:109A0000012101A8FFF790FD0028F9D0019803B0CB
:109A100000BD00B583B06B46D87101216B46D81DDF
:109A2000FFF726FE0028F8D003B000BD10B51300E4
:109A30000A00010002480068FEF76CFB10BDC0463A
:109A4000582200200B0021B1FF2A04D98A23036089
:109A50008B3B180070470A700123FAE7C9B28218DD
:109A6000904201D10020704703788B42FBD0013037
:109A7000F6E7FEE710B5FEF7C7F901000148FFF76A
:109A80000FFF10BD2C87000010B5FFF76BFDFFF72F
:109A90009BFEFFF75DFEFFF714F810BD034B00229D
:109AA0009A601A6801210A431A60704710E000E0CA
:109AB00010B5034B01001868FFF7E2F810BDC0466F
:109AC0005822002010B50249FFF70EFD10BDC04618
:109AD0004992000003008218934200D17047197028
:109AE0000133F9E7014B18605960704700200020EE
:109AF00010B50E23C95EFFF723FF10BD42F200032D
:109B000000204B607047C0464300504F53495800F7
:039B1000002E0024
:109B140010B5FEF77FF910BD10B500F015F810BDB3
:109B240010B5FFF7E9FF10BD10B500F013F810BD34
:109B340010B500F011F810BD10B5FFF79DFE10BD73
:109B440010B5FFF745FD10BD012040427047C046E7
:109B5400DC210020012070470020704770477047C7
:0200000400807A
:104000007F43FFB1BBFCFFFF80D0F8C0FFFFFFFF85
:104010000000000000000000020000001E65338464
:0CC00000FF00C0A000FFFFFF4081E7DD53
:10C01000FFFFFFFFFFFFFFFFFFFFFFFFFFFFFFFF30
:10C02000FFFFFFFFFFFFFFFFFFFFFFFFFFFFFFFF20
:10C03000FFFFFFFFFFFFFFFFFFFFFFFFFFFFFFFF10
:10C04000FFFFFFFFFFFFFFFFFFFFFFFFFFFFFFFF00
:10C05000FFFFFFFFFFFFFFFFFFFFFFFFFFFFFFFFF0
:10C06000FFFFFFFFFFFFFFFFFFFFFFFFFFFFFFFFE0
:10C0E000FFFFFFFFFFFFFFFFFFFFFFFFFFFFFFFF60
:10C0F000FFFFFFFFFFFFFFFFFFFFFFFFFFFFFFFF50
:00000001FF
