:020000040000fa
:10000000f01f0020b10200002306000025060000ba
:1000100000000000000000000000000000000000e0
:1000200000000000000000000000000021060000a9
:100030000000000000000000210600005105000043
:10004000210600002106000021060000000000003b
:10005000210600002106000021060000000000002b
:1000600021060000210600002106000021060000f4
:1000700021060000210600002106000021060000e4
:1000800021060000210600002106000021060000d4
:100090002106000021060000000000000000000012
:1000a0000000000000000000210600002106000002
:1000b00021060000210600002106000021060000a4
:1000c0002106000021060000210600002106000094
:1000d0002106000021060000210600002106000084
:1000e0002106000021060000210600002106000074
:0400f00021060000e5
:020000040000fa
:1000f400f8b5c046f8bc08bc9e4670476d030000c6
:10010400f8b5c046f8bc08bc9e46704749030000d9
:020000040000fa
:100114000222284b1a760022274b1a74274a284bae
:100124005a62190008224b681a42fcd141218023eb
:10013400234ad15010008021402243581a42fcd057
:100144001c4b20225a633f221a6318003c210422cc
:10015400435c1342fcd102212c23164ad1541000d3
:100164003c210222435c1342fcd112484021032269
:10017400435c1340032bfbd1124a114b1a62190042
:1001840004224b681a42fcd140218c230c4ad150e2
:1001940010008c21402243581a42fcd04021ac2349
:1001a400074ad1501000ac21402243581a42fcd0d7
:1001b4007047c046001000400014004005010400d0
:0801c400001c004007010200cd
:020000040000fa
:1001cc001e4a1f4b70b50021934203d219700133a4
:1001dc009342fbd1002503261a4803684168b3b942
:1001ec0059b383680c30bbb100230022845c9c544f
:1001fc0001328a42fad333000b405a1e93418908cc
:10020c0059188900401803684168002be8d08268af
:10021c000c303ab90029e0d059181d7001338b42cb
:10022c00fbd1dae70029e0d133000b405a1e934191
:10023c008908591889004018e5e770bd6c0000204a
:08024c000000002088030000ff
:020000040000fa
:1002540010b5134a137801210b43137011000122c6
:100264004b681a42fcd10e490e4bcb612020086129
:100274000d4b10221a721a751a542c241a5538244c
:100284001a5544241a5550241a555c241a550864e6
:100294000b78022213430b704b681a42fcd110bd39
:0c02a400002a0040010090000c00002027
:020000040000fa
:1002b00010b50c4b03b198470b4b03b19847fff7b0
:1002c00085ff0a4a7f210a4b8b439360094b98476d
:1002d000094b03b19847094b03b1984700f0acf8bc
:1002e000fee7c046000000000000000000ed00e056
:1002f00000000000010300000000000000000000fa
:020000040000fa
:1003000070b500260c4d0d4c641ba410a64209d1fb
:100310000026fff7effe0a4d0a4c641ba410a6420c
:1003200005d170bdb300eb5898470136eee7b30036
:10033000eb5898470136f2e7000100000001000089
:080340000001000004010000af
:020000040000fa
:1003480010b5054c237833b9044b13b1044800e0c9
:1003580000bf0123237010bd6c00002000000000c6
:1003680000000000034b10b51bb10349034800e02f
:1003780000bf10bd00000000700000200000000059
:020000040000fa
:100388006c0000201c000000000000008800002015
:100398000400000000000000000000200c00000025
:1003a800000000000c0000206000000000000000b9
:1003b8000000000000000000222222222222222225
:020000040000fa
:1003c8000c4b80221a600c4a1a61012250215a549f
:1003d80051215a5458215a5459215a5407215b2201
:1003e8009954222238215a543c215a54b0221205d9
:0c03f800da667047003200408000000808
:020000040000fa
:1004040010b504220a4b5a6000f072f8fff7daffc5
:10041400fff77efe00f0d6f800f03ff800f056f843
:10042400fff716ff00f0f2f800f038f810bdc046f0
:040434000050004133
:020000040000fa
:1004380010b582b00020fff7e1ff48f200031b6807
:1004480083f3888848f204031b680193019c6408bd
:100458006400200021002200230000f003f801209e
:0404680002b010bd11
:020000040000fa
:10046c00e0b545464e465746e0b45d4620b42546b9
:10047c0026462746a046a146a246a346a44684f398
:10048c000088a44720bcab46e0bcba46b146a8469f
:02049c00e0bdc1
:020000040000fa
:02049e007047a5
:020000040000fa
:1004a000bff35f8f62b6094b40f204301a58120254
:1004b000120ac02109060a431a508020186040f22f
:1004c00080229958014399509b58704700e100e001
:020000040000fa
:1004d000054a0023136093600449516006211160ae
:1004e000034a93601360704710e000e0ffd33000d0
:0404f00000000020e8
:020000040000fa
:1004f400074b00221a819a7901210a439a71022238
:100504009a70190001228b791342fcd07047c046bf
:04051400000400409f
:020000040000fa
:1005180010b500f06df800200100020003008446c9
:0c05280010bc01bc864680f3008804472c
:020000040000fa
:1005340010b500f033f800200100020003008446e7
:0c05440010bc01bc864680f30088044710
:020000040000fa
:1005500010b5054b9a6801329a601b6813b1024ac4
:0c0560005068984710bdc0460000002005
:020000040000fa
:10056c0010b500f055f8010002000300844610bce1
:0a057c0002bc864681f300880c479c
:020000040000fa
:1005860010b500f02ef8010002000300844610bcee
:0a05960002bc864681f300880c4782
:020000040000fa
:1005a00010b50021024800f02df800f003f810bd4e
:0405b000d905000069
:020000040000fa
:1005b400034b00229a601a6801210a431a607047ab
:0405c40010e000e063
:020000040000fa
:1005c800024b02225a6001221a7270470050004101
:020000040000fa
:1005d800024a1368013313607047c0468800002040
:020000040000fa
:1005e800024b18680a2390fbf3f07047880000203c
:020000040000fa
:0c05f8008022014bda61704700320040a5
:020000040000fa
:0c060400014b1860596070470000002096
:020000040000fa
:0c0610008022014b9a61704700320040cc
:020000040000fa
:04061c0040187047cb
:020000040000fa
:02062000fee7f3
:020000040000fa
:02062200fee7f1
:020000040000fa
:02062400fee7ef
:020000040000fa
:107e00007fe97fe9f8f796bb7fe97fe9f8f7bbbb2d
:107e10007fe97fe9f8f7aabb7fe97fe9f8f77cbb48
:020000040000fa
:0200000400807a
:044000007f43ffb14a
:020000040000fa
:0200000400807a
:04400400bbfcffff03
:020000040000fa
:0200000400807a
:0440080080d0f8c0ac
:020000040000fa
:0200000400807a
:04400c00ffffffffb4
:020000040000fa
:0200000400807a
:0440100000000000ac
:020000040000fa
:0200000400807a
:0440140000000000a8
:020000040000fa
:0200000400807a
:0440180002000000a2
:020000040000fa
:0200000400807a
:04401c001e65338466
:020000040000fa
:0200000400807a
:04c00000ff00c0a0dd
:020000040000fa
:0200000400807a
:04c0040000ffffff3b
:020000040000fa
:0200000400807a
:04c008004081e7ddaf
:020000040000fa
:0200000400807a
:04c01000ffffffff30
:020000040000fa
:0200000400807a
:04c01400ffffffff2c
:020000040000fa
:0200000400807a
:04c01800ffffffff28
:020000040000fa
:0200000400807a
:04c01c00ffffffff24
:020000040000fa
:0200000400807a
:04c02000ffffffff20
:020000040000fa
:0200000400807a
:04c02400ffffffff1c
:020000040000fa
:0200000400807a
:04c02800ffffffff18
:020000040000fa
:0200000400807a
:04c02c00ffffffff14
:020000040000fa
:0200000400807a
:04c03000ffffffff10
:020000040000fa
:0200000400807a
:04c03400ffffffff0c
:020000040000fa
:0200000400807a
:04c03800ffffffff08
:020000040000fa
:0200000400807a
:04c03c00ffffffff04
:020000040000fa
:0200000400807a
:04c04000ffffffff00
:020000040000fa
:0200000400807a
:04c04400fffffffffc
:020000040000fa
:0200000400807a
:04c04800fffffffff8
:020000040000fa
:0200000400807a
:04c04c00fffffffff4
:020000040000fa
:0200000400807a
:04c05000fffffffff0
:020000040000fa
:0200000400807a
:04c05400ffffffffec
:020000040000fa
:0200000400807a
:04c05800ffffffffe8
:020000040000fa
:0200000400807a
:04c05c00ffffffffe4
:020000040000fa
:0200000400807a
:04c06000ffffffffe0
:020000040000fa
:0200000400807a
:04c06400ffffffffdc
:020000040000fa
:0200000400807a
:04c06800ffffffffd8
:020000040000fa
:0200000400807a
:04c06c00ffffffffd4
:020000040000fa
:0200000400807a
:04c0e000ffffffff60
:020000040000fa
:0200000400807a
:04c0e400ffffffff5c
:020000040000fa
:0200000400807a
:04c0e800ffffffff58
:020000040000fa
:0200000400807a
:04c0ec00ffffffff54
:020000040000fa
:0200000400807a
:04c0f000ffffffff50
:020000040000fa
:0200000400807a
:04c0f400ffffffff4c
:020000040000fa
:0200000400807a
:04c0f800ffffffff48
:020000040000fa
:0200000400807a
:04c0fc00ffffffff44
:00000001FF
