:020000040000fa
:10000000f81f002065130000e71b0000870a0000ae
:1000100000000000000000000000000000000000e0
:10002000000000000000000000000000331b000082
:100030000000000000000000331b0000351b000022
:10004000331b0000331b0000331b0000331b000078
:10005000331b0000331b0000331b0000b5130000ee
:10006000331b0000331b0000331b0000331b000058
:10007000331b0000331b0000331b0000331b000048
:10008000331b0000331b0000331b0000331b000038
:10009000331b0000331b0000331b0000331b000028
:1000a000331b0000331b0000331b0000331b000018
:1000b000331b0000331b0000331b0000331b000008
:1000c000331b0000331b0000331b0000331b0000f8
:1000d000331b0000331b0000331b0000331b0000e8
:1000e000331b0000331b0000331b0000331b0000d8
:0400f000331b0000be
:020000040000fa
:1000f400f8b5c046f8bc08bc9e467047951500008c
:10010400f8b5c046f8bc08bc9e467047711500009f
:020000040000fa
:10011400f0b59bb00490039117001c0020b18369d3
:1001240005930bb901f092f8914b039a9a425ed170
:10013400049b5b680393039b9b891b0765d5039b07
:100144001b690593002b60d000220d92202208ab7e
:100154005a7630229a763d002b78002b5fd1ee1b25
:1001640066b133003a000399049801f0b9f9431ccd
:1001740000d153e10d9b9e1905930d962b78002b0e
:1001840000d14be1012208ae524272605322002397
:1001940004a9784f521801350893f360b3601370c3
:1001a400223705222978380001f010fd6a1c002846
:1001b40039d13068c30604d55323202104afdb1999
:1001c4001970030704d553232b2104afdb191970cd
:1001d4002b782a2b2fd000200a21f3682a78303a72
:1001e400092a00d86fe000282cd0f3602ae0624b83
:1001f400039a9a4202d1049b9b689be75f4b039a44
:100204009a4298d1049bdb6894e70399049800f020
:1002140039fc002898d0012040421bb0f0bd252baa
:100224009dd0013598e70123c01b83403168150038
:100234000b433360b5e72368211d002b3ddbf360de
:1002440015000c002b782e2b0ad16b786a1c2a2bf4
:1002540041d122680235231d002a39db1c0072605b
:10026400444f297828370322380001f0affc30b11d
:100274004023c01b8340326801351343336029781f
:100284006f1c3c4d062228002c30317601f09efc78
:100294005321327e04abc918692a32d03ed8582a79
:1002a40000d1c2e029d8002a00d1f0e0522304a8ea
:1002b4001b181a7001230c934fe05b42f360022376
:1002c40003433360bce74b4301359b18012085e7aa
:1002d40001225242c2e7002315000a201a0073606b
:1002e40029783039092903d9002bb9d07260b7e7ce
:1002f4004243013552180123f2e7632a25d0642ac8
:10030400d4d10898221d03062dd523681400002b90
:1003140002da2d225b420a700a223ee0702a00d1e2
:100324008de007d86f2ac1d1089b211d180627d557
:10033400236829e0752af7d0782ab7d15523782283
:1003440004a95b181a70113573e0522304aa9b1890
:10035400227804341a7001233361002352260b706f
:1003640004abf6183ce023684006cfd51bb2cde7ba
:10037400541a000008170000741a0000341a000010
:100384005b06d5d523689bb20c006f2a6ed00a2277
:100394005321002004ae8919087009990a91002993
:1003a40000da8ee00420089e86430896002b5fd175
:1003b400002900d087e0532604abf618082a0ad196
:1003c400089b0593db0706d5099a0c9b9a4202dc2d
:1003d4003023013e3370532304aa9b189b1b0c93b8
:1003e4003c4b07aa009308a9039b049800f0bcfbac
:1003f400431c13d00c9b32000399049801f070f84d
:10040400431c0bd0089b002505939b074dd4079aea
:100414000b9b934200da13005a1c4dd1039b0d9899
:100424009b895b0600d4f8e6f5e6552304a95b181e
:100434001a70089a211d130606d5236808e02023a4
:1004440032681343336079e75306f6d523689bb2c9
:100454000c00d10702d520210a4308921022002b58
:1004640096d1202108988843089091e708228fe7c5
:10047400532604a97618b3fbf2f1100048431b1a63
:10048400eb5c013e33700b000029f4d196e7326136
:100494000e00a5e7292204a9012352180498039900
:1004a40001f01ef8431cb9d001350b9b079a059344
:1004b4009b1a9d42eedbaae70d9ad31805920d9381
:1004c40049e6002bd4d1522604abf6182b783370ae
:0804d40074e7c046e5140000c6
:020000040000fa
:1004dc003c0200201c000000000000000000002076
:1004ec000c000000000000000c0000206000000068
:1004fc000000000058020020040000000100000071
:10050c00dc010020dc010020600000000100000084
:10051c0000000000541a0000741a0000341a000085
:10052c0000000000000000000000000000000000bf
:10053c0000000000000000000000000000000000af
:10054c00000000000000000000000000000000009f
:10055c00000000000000000000000000000000008f
:10056c00000000000000000000000000000000007f
:10057c005c0200200400000000000000600200206b
:10058c000400000000000000700000206c0100005e
:10059c00010000004300000000000000000000000b
:1005ac00000000000000000000000000000000003f
:1005bc0000000000430000000000000000000000ec
:1005cc00000000000000000000000000000000001f
:1005dc0000000000430000000000000000000000cc
:1005ec0000000000000000000000000000000000ff
:1005fc0000000000430000000000000000000000ac
:10060c0000000000000000000000000000000000de
:10061c00000000004300000000000000000000008b
:10062c0000000000000000000000000000000000be
:10063c00000000004300000000000000000000006b
:10064c00000000000000000000000000000000009e
:10065c00000000004300000000000000000000004b
:10066c00000000000000000000000000000000007e
:10067c0000000000b91b0000f51a0000000000008b
:10068c0084090000711c0000701c0000701c00002c
:10069c00701c0000701c0000701c0000701c00001e
:1006ac00701c0000701c0000701c0000ffffffff9e
:1006bc00ffffffffffffffffffff000001004153a3
:1006cc004349490000000000000000000000000049
:1006dc00000000000000000000000000000041537a
:1006ec004349490000000000000000000000000029
:1006fc0000000000000000000000000000000000ee
:10070c006c000020040000000000000064020020c7
:10071c0004000000000000000000000000000000c9
:020000040000fa
:10072c00737769746368206973207072657373657d
:10073c00642100000a0a00002a2a2a2a2a2a2a2ac4
:10074c002a2a2a2a2a2a2a2a2a2a2a2a2a2a2a2afd
:10075c002a2a2a2a2a2a2a2a2a2a2a2a2a2a2a2aed
:10076c002a2a2a2a2a2a2a2a2a2a2a2a2a2a2a2add
:10077c002a2a2a2a2a2a00004d616b65727320648a
:10078c006576656c6f706564206120736563757246
:10079c006520706c6174666f726d20647572696e21
:1007ac006720434f5649442d313920706572696f6b
:1007bc006420746f00000000737570706f72742089
:1007cc00636f6d6d756e697469657320616e6420fd
:1007dc00646576696365206d616e756661637475b9
:1007ec0072657273206f6e2072652d7468696e6b02
:1007fc00696e6700736563757269747920737472be
:10080c006174656769657320666f722074686569c9
:10081c0072206675747572652070726f647563747e
:10082c0020726f61646d61700a0000005472757300
:10083c0074696679207465616d3a204a616e7573ce
:10084c002c204d6174686961732c20616e642048a2
:10085c0061690a0056657273696f6e3a20253032f1
:08086c00642e253032640a00fd
:020000040000fa
:10087400f7b58a8905000c0013075ed44b68002b7a
:1008840004dc0b6c002b01dc0020febde76a002faa
:10089400fad000232e682b6041f200031a4092b371
:1008a400606da3895b0705d56368c01a636b0bb1e0
:1008b400236cc01a0200216a00232800e76ab847a3
:1008c400a189431c06d12b681d2b30d82b4ada4052
:1008d400d3072cd50023636023692360cb0404d59c
:1008e400431c01d12b6803b96065616b2e6000293c
:1008f400cad023004433994202d0280000f024fbdc
:1009040000206063c1e70123216a2800b847431c23
:10091400c7d12b68002bc4d01d2b01d0162b01d1bd
:100924002e60b1e74023a2891343a381ade740239e
:100934000b430120a3814042a7e70f69002fa3d0f6
:100944000b680f60db1b01930023920700d14b69f6
:10095400a360019b002b00dc96e7019b3a00216a0f
:100964002800a66ab047002803dc4023a289134369
:10097400dfe7019b3f181b1a0193eae701004020bf
:020000040000fa
:10098400002020202020202020202828282828205b
:100994002020202020202020202020202020202053
:1009a40020881010101010101010101010101010bb
:1009b40010040404040404040404041010101010ab
:1009c4001010414141414141010101010101010175
:1009d40001010101010101010101010110101010c7
:1009e4001010424242424242020202020202020247
:1009f400020202020202020202020202101010109b
:100a040020000000000000000000000000000000c2
:100a140000000000000000000000000000000000d2
:100a240000000000000000000000000000000000c2
:100a340000000000000000000000000000000000b2
:100a440000000000000000000000000000000000a2
:100a54000000000000000000000000000000000092
:100a64000000000000000000000000000000000082
:100a74000000000000000000000000000000000072
:010a84000071
:020000040000fa
:020a8600fee789
:020000040000fa
:100a8800344b70b51d6806000c0025b1ab6913b96d
:100a9800280000f0d9fb304b9c420fd16c680c2326
:100aa800e25e93b219072cd4d90611d40923336016
:100ab800402301201343a381404270bd274b9c4231
:100ac80001d1ac68ebe7264b9c42e8d1ec68e6e73d
:100ad8005b0712d5616b41b123004433994202d0c0
:100ae800300000f02ffa002363632422a389934384
:100af800a38100236360236923600823a289134329
:100b0800a38123695bb940f2802140f20022a389c6
:100b18000b40934203d02100300000f059fb012321
:100b2800a28913408bb10023a36063695b42a36170
:100b380023690020002bc0d10c23e25e1306bcd52c
:100b480040231343a3810138b7e7920700d46369b0
:100b5800a360ede758020020541a0000741a000040
:040b6800341a00003b
:020000040000fa
:100b6c00f7b5150001938a680b6900900c0093424d
:100b7c0000da130022002b60433212780ab10133e1
:100b8c002b6023689b0602d52b6802332b6006274b
:100b9c0023681f403fb3230043331b785a1e9341f5
:100bac002268920630d42200019943320098089ea4
:100bbc00b047431c25d0062320682a68e16803400f
:100bcc000025042b03d18d1aeb43db171d40a368c2
:100bdc002269934201dd9b1aed180027bd4220d1fa
:100bec00002010e00137e3682a689b1a9f42d2da92
:100bfc0022000123193201990098089eb047431c2a
:100c0c00f0d101204042febd3020e1184331087084
:100c1c0021005a1c45310978a21843320233117055
:100c2c00c1e7220001231a3201990098089eb047af
:080c3c00431ce6d00137d1e7ab
:020000040000fa
:100c440070b505000e0018b183690bb900f0fefa07
:100c5400ab69ac6813b9280000f0f8fa294b9c4240
:100c640019d16c680c23e25e42f200031a4205d1ea
:100c74001343a381226e244b13402366a3891b07cd
:100c840001d52369fbb921002800fff7fbfed0b191
:100c94000120404270bd1d4b9c4201d1ac68e1e78c
:100ca4001b4b9c42ded1ec68dce7013b0136a360c0
:100cb400002b04daa269934216db0a2914d02368b4
:100cc4005a1c226019703178a3680029edd1013bc8
:100cd400a360002b0fda22000a21280000f01af882
:100ce400431cd5d00a20d5e72200280000f012f8d2
:100cf400431ce8d1cce70a2023685a1c22601870f0
:100d0400c8e7c046541a0000ffdfffff741a000052
:040d1400341a00008d
:020000040000fa
:100d1800f8b505000e00140018b183690bb900f08e
:100d280093fa274b9c4230d16c68a369a360a389ce
:100d38001b0734d5236993b30c23e25e42f2000308
:100d4800f7b2f6b21a4234d023682269981a636956
:100d5800984204db2100280000f0d6fa28bba368db
:100d68000130013ba36023685a1c22601f7063692d
:100d7800984204d0a389db0719d50a2e17d1210080
:100d8800280000f0c1fa90b10fe00e4b9c4201d14f
:100d9800ac68cae70c4b9c42c7d1ec68c5e7210098
:100da8002800fff76dfe0028c6d0012676423000e5
:100db800f8bd1343a381226e044b13402366c3e797
:100dc800541a0000741a0000341a0000ffdffffff5
:020000040000fa
:100dd800032370b5cd1c9d43083506000c2d1cd28d
:100de8000c25a9421bd8300000f062ff254a146880
:100df8002100c1b9244c23681bb9300000f046fe1d
:100e080020602900300000f041fe431c2dd10c2346
:100e18003000336000f04dff03e0002de1da0c23d1
:100e28003360002070bd0b685b1b1bd40b2b03d9f0
:100e38000b60cc18256003e08c420fd16368136007
:100e4800300000f036ff200007220b30231d9043ae
:100e5800c31a002be6d05a42e250e3e74b686360be
:100e68000c00ede70c004968c3e70323c41c9c434e
:100e7800a042dfd0211a300000f008fe431cd9d16f
:0c0e8800c5e7c0465c02002060020020ac
:020000040000fa
:100e94000222284b1a760022274b1a74274a284b21
:100ea4005a62190008224b681a42fcd1412180235e
:100eb400234ad15010008021402243581a42fcd0ca
:100ec4001c4b20225a633f221a6318003c2104223f
:100ed400435c1342fcd102212c23164ad154100046
:100ee4003c210222435c1342fcd1124840210322dc
:100ef400435c1340032bfbd1124a114b1a621900b5
:100f040004224b681a42fcd140218c230c4ad15054
:100f140010008c21402243581a42fcd04021ac23bb
:100f2400074ad1501000ac21402243581a42fcd049
:100f34007047c04600100040001400400501040042
:080f4400001c0040070102003f
:020000040000fa
:100f4c0070b5050079b10c1f2368002b00dae4188a
:100f5c00280000f0abfe1c4a13682bb963601460c8
:100f6c00280000f0a4fe70bda34209d921686018c6
:100f7c008342f3d118685b6841182160eee71300d7
:100f8c005a680ab1a242fad919685818a0420bd172
:100f9c0020680918581819608242e1d1106852680b
:100fac00411819605a60dbe7a04202d90c232b6070
:100fbc00d6e721686018824203d110685268411844
:0c0fcc00216062605c60cbe75c020020ea
:020000040000fa
:100fd8001e4a1f4b70b50021934203d2197001338a
:100fe8009342fbd1002503261a4803684168b3b928
:100ff80059b383680c30bbb100230022845c9c5435
:1010080001328a42fad333000b405a1e93418908b1
:1010180059188900401803684168002be8d0826895
:101028000c303ab90029e0d059181d7001338b42b1
:10103800fbd1dae70029e0d133000b405a1e934177
:101048008908591889004018e5e770bd700000202c
:0810580000000020dc04000090
:020000040000fa
:1010600070b5002000f036fb00f0befd00221849ec
:10107000052000f017fc174c2000143000f0befdd6
:1010800025001835280000f0b9fd2000583000f088
:10109000b5fd114c2000183000f0b0fd2000543098
:1010a00000f0acfd0d4c20000c3000f0a7fd20003e
:1010b00034306322002100f0adfc280000f09efdda
:1010c000074d8024ec6140f2e83000f067fbf9e75f
:1010d000211c00002c070000ac0700002c080000b9
:0410e000003200409a
:020000040000fa
:1010e400f0b585b001900e00140000f02ffd01282a
:1010f4001ad1731efe2b17d8050002ab1e710027f0
:10110400af4220d003abd95da368013ba360002ba1
:1011140004daa269934219db0a2917d023685a1cfe
:10112400226019700137ebe723003200583303a91a
:10113400019800f0f9f90500431ce0d140230600b2
:10114400a2891343a381300005b0f0bd22000198a9
:0c115400fff7e0fd431ce5d10600f4e7c6
:020000040000fa
:10116000f8b51c4b07001e68b36913b9300000f0d6
:101170006ff84836b4687368013b03d5336833b100
:101180003668f7e70c22a55e6db16434f4e70421fc
:10119000380000f01bfb30600028f1d10c23040064
:1011a0003b602000f8bd01235b42e3812000012366
:1011b0002566a3812560a560656025616561a561df
:1011c00008222900583000f03bfd6563a563a56443
:0811d000e564e6e7ac1c000039
:020000040000fa
:1011d800f7b502268b8905000c00334206d02300a0
:1011e80047332360236101236361f7bd01ab6a467e
:1011f80000f004f9009907002800fff7e9fd30b96d
:101208000c22a35e9a05f0d41e43a681e7e70d4b96
:10121800ab628023a28920601343a381009b2061d5
:101228006361019b4bb10e23e15e280000f04efc88
:1012380018b10123a2891343a381a0893843a0814f
:08124800d3e7c046311c000091
:020000040000fa
:10125000836913b5040043bb8364c3640365134b04
:10126000134a1b6882620193984201d10123836172
:101270002000fff775ff60602000fff771ffa0609e
:101280002000fff76dff0022e0600421606800f09d
:1012900005f901220921a06800f000f902221221bb
:1012a000e06800f0fbf80123a36113bdac1c000053
:0412b000311c0000ed
:020000040000fa
:1012b40010b5144a137801210b4313701100012255
:1012c4004b681a42fcd10f4990231b04cb612020a8
:1012d40008610d4b10221a721a751a542c201a54d4
:1012e40038201a54052444201c5450201a545c20dd
:1012f4001a540b78022213430b704b681a42fcd128
:0c13040010bdc046002a00400c00002074
:020000040000fa
:101310000b6970b505000c000bb9002070bd18b149
:1013200083690bb9fff794ff0b4b9c4209d16c68a2
:101330000c22a35e002bf0d021002800fff79afac0
:10134000ece7064b9c4201d1ac68f1e7044b9c42b0
:10135000eed1ec68ece7c046541a0000741a0000a5
:04136000341a00003b
:020000040000fa
:1013640010b50c4b03b198470b4b03b19847fff7eb
:1013740031fe0a4a7f210a4b8b439360094b9847fd
:10138400094b03b19847094b03b19847fff766fe31
:10139400fee7c046000000000000000000ed00e091
:1013a40000000000551400000000000000000000d0
:020000040000fa
:1013b400f0b5c64600b5104d0424104e012705e0d3
:1013c400434673610c350134082c11d02b0038339b
:1013d4001a78e3b29a42f5d173693a00a240904672
:1013e4001a42efd02b6b002bead0686b9847e7e7e3
:1013f40004bc9046f0bdc0460c000020002a00400a
:020000040000fa
:1014040070b50e001d000e23c95e90b014000029b3
:1014140007da00232b60b3891b0611d440f2004382
:101424000fe001aa00f0acfa0028f2db4ff2000250
:10143400029b1340054a9b185a4253412b60ede727
:1014440040230020236010b070bdc04600e0ffffc1
:020000040000fa
:1014540070b500260c4d0d4c641ba410a64209d196
:101464000026fef745fe0a4d0a4c641ba410a64252
:1014740005d170bdb300eb5898470136eee7b300d1
:10148400eb5898470136f2e7000100000001000024
:0814940000010000040100004a
:020000040000fa
:10149c00002310b504000360436083608181036600
:1014ac00c28103614361836119000822583000f046
:1014bc00c1fb054b24626362044ba362044be362e1
:1014cc00044b236310bdc046cd1800006516000008
:0814dc00f9170000511c00008b
:020000040000fa
:1014e400f8b50d00096e06001400d718890418d544
:1014f4009f08bf00d719bc4201d1002008e02a0090
:1015040002cc300000f004fb431cf4d10120404223
:10151400f8bd21782a00300000f098f90134431c0a
:08152400f4d0bc42f5d1e8e768
:020000040000fa
:10152c007fb51d000d4b04001b681b6a81b903b904
:10153c000b4be0331e6800222b0001a92000b047a2
:10154c00431c03d100232b608a23236004b070bd9d
:10155c0003b9034be0331e682b00efe75802002061
:04156c0070000020eb
:020000040000fa
:1015700010b5054c237833b9044b13b1044800e08f
:1015800000bf0123237010bd3c02002000000000ba
:1015900000000000034b10b51bb10349034800e0f5
:1015a00000bf10bd0000000040020020000000004d
:020000040000fa
:1015b000f7b5040007000026019148340cb930004b
:1015c000febd6368a5680093009b013b009301d5b5
:1015d0002468f3e7ab89012b08d90e22ab5e0133f7
:1015e00004d029003800019b984706436435ebe797
:020000040000fa
:1015f00070b505000c00a8b100f0a0f800200a4a60
:1016000004210726a04208d0137e0b42fcd0138d84
:101610002b540130538b3342f4d0001b43425841ca
:0c162000c0b270bd0020fce700040042d6
:020000040000fa
:10162c000a4b0b4a1a600b4a9a81c02292025a60ea
:10163c001a00d369002bfcd1044a136802210b4316
:10164c001360d369002bfcd17047c04600040042e4
:08165c000401314041f1ffffe0
:020000040000fa
:10166400f8b51f008b8905000c001600db0505d5b5
:101674000e23c95e0022022300f094f9a389054acf
:1016840028001340a38132000e23e15e3b0000f0ea
:0816940065f9f8bdffefffff4f
:020000040000fa
:10169c0070b50c00002519b112b11500022801d942
:1016ac00280070bd074b23b11100200000e000bfe3
:1016bc00f6e716002078013e00f05ffa0134002ea8
:0816cc00f8d1ede70000000079
:020000040000fa
:1016d40010b504220a4b5a6000f00af900f0ccf865
:1016e400fff7d6fb00f092fa00f0c5f8fff79cff75
:1016f40000f022f9fff7dcfd00f00cf910bdc04644
:041704000040004160
:020000040000fa
:10170800303132333435363738394142434445462f
:1017180000303132333435363738396162636465c5
:101728006600232d302b2000686c4c0065666745e9
:0317380046470021
:020000040000fa
:10173c000a4b588b0723184000b97047074b80227f
:10174c001a7607225a831b7e5b07f6d5034b0421be
:10175c001a8d1a7e0a42fbd1efe7c0460004004204
:020000040000fa
:10176c0030b570b179b105004118084a0124137ed7
:10177c002342fcd02b7813850135a942f7d10120e7
:10178c0030bd0020fce70120fae7c046000400420f
:020000040000fa
:10179c00094b1b68db439b0700d07047074b9968cc
:1017ac0040f2e8335843b0fbf3f0044a93685b1af9
:1017bc009842fbd8f1e7c04610e000e000000020a2
:020000040000fa
:1017cc0070b564254a1e55430e0029007031fff791
:1017dc00fdfa040040b100212a00016046600c3083
:0c17ec00a060643200f026fa200070bdfe
:020000040000fa
:1017f80070b50c000e25495f00f0d2f8a389421c91
:1018080003d1054a1340a38170bd41f2000213437e
:0c181800a3816065f8e7c046ffefffff0a
:020000040000fa
:10182400074a13684bb107491818884202d8106058
:101834001800704701204042fbe7034b1360f2e7b6
:0c184400640200207004002070020020ec
:020000040000fa
:10185000936810b5013b9360002b05da9469a342ad
:1018600008dbcbb20a2b05d01368581c1060197026
:0a187000c8b210bdfff750fafbe705
:020000040000fa
:02187a007047b5
:020000040000fa
:10187c00084b80221a60802212051a61012258211d
:10188c005a5459215a5405215b22995422213c2245
:08189c0099547047003200402e
:020000040000fa
:1018a40030b543001b189b00064ce3181b7a834297
:1018b40000d030bd43001d18ad00295160194260ad
:0818c400f7e7c0460c0000200c
:020000040000fa
:1018cc0070b50c000e25495f00f07af8002803db98
:1018dc00636d1b18636570bda389024a1340a38115
:0818ec00f9e7c046ffefffff22
:020000040000fa
:1018f400074b00221a819a7901210a439a71022224
:101904009a70190001228b791342fcd07047c046ab
:04191400000400408b
:020000040000fa
:10191800bff35f8f62b6064a40f2043013581b02c9
:101928001b0ac02109060b4313508023136070471c
:0419380000e100e0ea
:020000040000fa
:10193c00064a00231360936047f6ff41516006216d
:10194c001160034a936013607047c04610e000e0da
:04195c000000002067
:020000040000fa
:1019600070b50500080011000022054c22601a0025
:1019700000f094f9431c02d1236803b12b6070bdc1
:041980006c000020d7
:020000040000fa
:10198400002370b5064c050008001100236000f028
:1019940073f9431c02d1236803b12b6070bdc046a8
:0419a4006c000020b3
:020000040000fa
:1019a80070b50500080011000022054c22601a00dd
:1019b80000f068f9431c02d1236803b12b6070bda5
:0419c8006c0000208f
:020000040000fa
:1019cc0070b50500080011000022054c22601a00b9
:1019dc0000f05af9431c02d1236803b12b6070bd8f
:0419ec006c0000206b
:020000040000fa
:1019f00070b5002661b15ab1160048b90c00150047
:101a0000012000f0b3f8013d20700134002df7d122
:041a1000300070bd75
:020000040000fa
:101a14000fb407b5054b04aa1b6802ca9868019263
:101a240000f0bcf803b008bc04b01847580200200a
:020000040000fa
:101a340000000000000000000000000000000000a2
:101a44000000000000000000000000000000000092
:020000040000fa
:101a54000000000000000000000000000000000082
:101a64000000000000000000000000000000000072
:020000040000fa
:101a74000000000000000000000000000000000062
:101a84000000000000000000000000000000000052
:020000040000fa
:101a9400002370b5054c050008002360fff7c0fe65
:101aa400431c02d1236803b12b6070bd6c0000207d
:020000040000fa
:101ab400002370b5054c05000800236000f0d8f839
:101ac400431c02d1236803b12b6070bd6c0000205d
:020000040000fa
:101ad400002370b5054c05000800236000f0d0f821
:101ae400431c02d1236803b12b6070bd6c0000203d
:020000040000fa
:101af40082b001b901a910002ab133b113780b6087
:101b04001078431e984102b0704702204042fae721
:020000040000fa
:101b140010b50c23d45e42f200031c4204d11c43d2
:0e1b24009481146e23431366fff7dafa10bda6
:020000040000fa
:021b3200fee7cc
:020000040000fa
:101b340010b5054b9a6801329a601b6813b1024aca
:0c1b44005068984710bdc046000000200b
:020000040000fa
:101b5000044b1b681b6a03b9034b40f22812985cc4
:0c1b60007047c0465802002070000020b2
:020000040000fa
:101b6c0000b583b000230193012101a8fff73afdd2
:0a1b7c000028f9d0019803b000bd65
:020000040000fa
:101b860000b583b06b46d87101216b46d81dfff7af
:0a1b9600eafd0028f8d003b000bdfe
:020000040000fa
:101ba00010b513000a00010002480068fef7b2faff
:081bb00010bdc04658020020e0
:020000040000fa
:101bb8000b0021b1ff2a04d98a2303608b3b18004c
:081bc80070470a700123fae7df
:020000040000fa
:101bd000c9b28218904201d10020704703788b422d
:061be000fbd00130f6e726
:020000040000fa
:021be600fee718
:020000040000fa
:101be800034b00229a601a6801210a431a60704761
:041bf80010e000e019
:020000040000fa
:101bfc0010b5034b01001868fff71ef810bdc04666
:041c0c00580200205a
:020000040000fa
:101c1000024b02225a6001221a72704700500041a2
:020000040000fa
:101c200010b50248fff7eaff10bdc0462c070000c0
:020000040000fa
:101c300010b50249fff7bcfc10bdc04611130000ef
:020000040000fa
:101c400003008218934200d1704719700133f9e7fd
:020000040000fa
:0c1c500010b50e23c95efff72dff10bd7c
:020000040000fa
:0c1c5c0042f2000300204b607047c046bd
:020000040000fa
:0b1c68004300504f53495800002e006d
:020000040000fa
:081c740010b500f015f810bdd9
:020000040000fa
:081c7c0010b5fff7edff10bdec
:020000040000fa
:081c840010b500f013f810bdcb
:020000040000fa
:081c8c0010b500f011f810bdc5
:020000040000fa
:081c940010b5fff7abfe10bd17
:020000040000fa
:081c9c0010b5fff7fdfc10bdbf
:020000040000fa
:081ca400012040427047c046d8
:020000040000fa
:041cac00dc01002037
:020000040000fa
:041cb0000120704758
:020000040000fa
:041cb4000020704755
:020000040000fa
:021cb800704773
:020000040000fa
:021cba00704771
:020000040000fa
:0200000400807a
:044000007f43ffb14a
:020000040000fa
:0200000400807a
:04400400bbfcffff03
:00000001FF
