:020000040000fa
:10000000f81f0020ad36000003360000073a00005c
:1000100000000000000000000000000000000000e0
:10002000000000000000000000000000533200004b
:1000300000000000000000005332000051410000a9
:10004000533200005332000053320000533200009c
:10005000533200005332000053320000fd360000de
:10006000533200005332000053320000533200007c
:10007000533200005332000053320000533200006c
:10008000533200005332000053320000533200005c
:10009000533200005332000053320000533200004c
:1000a0005332000053320000891900008919000002
:1000b00089190000891900005332000053320000f2
:1000c000533200005332000053320000533200001c
:1000d000533200005332000053320000533200000c
:1000e00053320000533200005332000053320000fc
:0400f0005332000087
:020000040000fa
:1000f400f8b5c046f8bc08bc9e4670472d390000d0
:10010400f8b5c046f8bc08bc9e46704709390000e3
:020000040000fa
:10011400f7b50d001f000903eb0f6c00490a450fea
:100124002943fd0fac4600933b03550f5b0a7e0049
:100134002b43009d640d760dc000d200a71b6545be
:1001440000d03ee1002f62dd2ebb1e00164306b335
:100154007e1ed6b982188242a441c9186442091984
:10016400100001240b0200d4c2e040f2ff730134fa
:100174009c4200d189e20122c04d4308294010402d
:100184001843ca0710434908b2e040f2ff75af4272
:100194000ad13c00ace040f2ff75ac4200d1a7e0cc
:1001a40080253e002d042b43382e2cdc1f2e18dc1a
:1001b4002027bd1b01951d00019ff340bd40ac46a7
:1001c40015006746f5403d43019fba40571eba41aa
:1001d4002a4312185b188242894149425918100077
:1001e400c0e735001f00203def403d000027202ed2
:1001f40003d04027be1bb3401f003a43571eba41e9
:100204002a430023e5e71a43531e9a41f9e7002fd6
:1002140050d0acb90c000443002c00d12ee2fc43b6
:100224003cb980189042a441c918644209193400a9
:1002340098e740f2ff75ae420ad119001000dde0e4
:1002440040f2ff74a642f8d080252d047c42294355
:10025400382c2bdc1f2c17dc20273d1b01950d00af
:10026400019fe140bd40ac4605006746e5403d4383
:10027400019fb840471eb8412843801890429241dc
:10028400c91852428918d2e725000f00203def40db
:100294003d000027202c03d040273c1ba1400f0029
:1002a4003843471eb84128430021e6e70843411e6e
:1002b4008841f9e7661c75056d0d012d00dd6fe0c1
:1002c4000e000643002c4ed1002e00d1d9e11d00b2
:1002d40015436db182188242b641c9188023764213
:1002e40089191b041000194202d00124634b1940e0
:1002f400430709d00f230340042b05d0031d834279
:1003040080414042091818000b0207d540f2ff73e0
:1003140001349c4200d1c3e1584b19404b07c0083b
:10032400184340f2ff73c9089c4207d103000b43f2
:10033400002b00d1b7e180231b03194300270600db
:100344000903380d00054e4b090b014364051940a0
:1003540064080c43009b6400d90764080c43300014
:10036400210003b0f0bd002e00d166e71d00154347
:1003740040f2ff74002dbbd04d07c00828438025f0
:10038400c9082d03294206d0dc082c4203d12100e0
:10039400d20858071043450fc9002943c0002de077
:1003a40040f2ff74a64200d16ee18218824280417d
:1003b400c91840420918c8075208104349083400b4
:1003c40096e7002f5edde6b91e001643002e00d12d
:1003d400dfe67e1e76b9821a9042a441c91a6442ad
:1003e400091b100001240b0200d481e74d026d0aa1
:1003f4000600f9e040f2ff75af420bd140f2ff7402
:1004040076e740f2ff75ac4200d171e780253e00eb
:100414002d042b43382e2cdc1f2e18dc2027bd1b6b
:1004240001951d00019ff340bd40ac461500674691
:10043400f5403d43019fba40571eba412a43821af0
:1004440090428041c91a4042091a1000cbe7350096
:100454001f00203def403d000027202e03d0402701
:10046400be1bb3401f003a43571eba412a43002320
:10047400e5e71a43531e9a41f9e7c046ffff7fffa1
:10048400ffff0f80002f4ad0b4b90c0004437cb1a5
:10049400fc434cb9101a82429241591a63465242a3
:1004a400891a340000939ee740f2ff75ae420bd1e7
:1004b40019001000340043e040f2ff74a642f7d064
:1004c40080252d047c422943382c24dc1f2c10dc8d
:1004d40020273d1b00950d00009fe140bd402f00eb
:1004e4000500e5403d43009fb840471eb8412843fe
:1004f400d0e725000f00203def403d000027202cd1
:1005040003d040273c1ba1400f003843471eb8418d
:1005140028430021bee70843411e8841f9e7661cd1
:100524007605760d012e4ddc1e000f0016430743a1
:100534002cbb47b93000002e00d1a9e019001000ef
:1005440063460093d4e6002e00d1d1e6861ab04269
:10055400bf41cd1a7f42ed1b80273f043d4206d0a8
:10056400101a82429241591a5242891ae8e730001d
:100574002843002800d18be029003000b8e647b9b1
:100584003000002e00d186e019006346100000936d
:1005940034e740f2ff74002e00d1a9e64d07c008ed
:1005a40028438025c9082d03294200d1f3e6dc083d
:1005b4002c4200d0efe658076346d20810432100ce
:1005c4000093e8e6861ab042bf41cd1a7f42ed1b84
:1005d40080273f043d422cd0161ab2429241591a48
:1005e400634652428d1a009355b3280003f028fa4b
:1005f4000300083b1f2b28dc202231003000d21ad4
:100604009d40d14098400d439c4233dc1c1b611c2f
:100614001f291fdc20232a005b1a04009840cd40c8
:100624009a40cc40431e98412900224310430024a1
:100634005ee6300028430028d6d10100040028e0fb
:10064400300003f0fdf92030d2e73500283885402a
:100654000020d9e72b001f3ce3400022202903d0cf
:100664004022511a2a008a401043421e9041002120
:100674001843dce70d49e41a294039e61900100053
:100684009de61900100033e63400002108002fe62f
:10069400010000902ce6802140f2ff74c903f8e7c2
:1006a400002108003ae6190048e6c046ffff7fff34
:1006b400f7b50d0009036c00ed0f1f030095490aff
:1006c400450f29437f0a550f2f4340f2ff755e0003
:1006d400640dc000760ddb0fd200ae4203d13d00a5
:1006e40015439c4615b901255d40ac46009da31bee
:1006f400ac4500d03ae1002b60dd2ebb3e00164332
:1007040006b35e1ed6b9821882429b4101241000b2
:10071400c9195b42c9180b0200d4bee040f2ff7352
:1007240001349c4200d180e20122bd4d430829409e
:1007340010401843ca0710434908aee040f2ff7561
:10074400ab420ad11c00a8e040f2ff75ac4200d1d4
:10075400a3e080251e002d042f43382e2adc1f2ef3
:1007640017dc20233d009b1b9d40ac4615000193e4
:10077400f54063461d43019bf7409a40531e9a413e
:100784002a4312187f18824289414942791810007d
:10079400c1e733003d00203bdd400023202e03d081
:1007a40040239e1b3b00b3401a43531e9a412a43e5
:1007b4000027e6e73a43571eba41f9e7002b4ed02b
:1007c400acb90c000443002c00d127e2db433bb955
:1007d400801890429b41c9195b42c91834009ae7ba
:1007e40040f2ff74a6420ad139001000dbe040f267
:1007f400ff74a642f8d0802424045b422143382ba2
:1008040029dc1f2b16dc20240d00e41aa540ac467d
:1008140005000194dd4064462543019cd940a04075
:10082400441ea0412843801890429241c919524263
:100834008918d3e71c000d00203ce5400024202b40
:1008440003d04024e31a99400c002043441ea041e5
:1008540028430021e7e70843411e8841f9e7661c65
:1008640075056d0d012d00dd6fe00b000343002cb9
:100874004ed1002b00d1d4e13b0013436bb182185d
:1008840082429b41c9195b42c91880231b04100092
:10089400194202d00124624b1940430709d00f23a7
:1008a4000340042b05d0031d8342804140420918b4
:1008b40018000b0207d540f2ff7301349c4200d1ab
:1008c400bee1574b19404b07c008184340f2ff7371
:1008d400c9089c4207d103000b43002b00d1b2e1ad
:1008e40080231b031943002706000903380d000564
:1008f4004c4b090b01436405194064080c43009bed
:100904006400d90764080c433000210003b0f0bd33
:10091400002b00d168e73b00134340f2ff74002b27
:10092400bbd080244d07c008c908240328432142b2
:1009340006d0fb08234203d11900d20878071043dc
:10094400450fc9002943c0002de040f2ff74a642c0
:1009540000d169e1821882428041c91940420918d4
:10096400c807520810434908340096e7002b5bdda2
:10097400e6b93e001643002e00d1e3e65e1e76b9ca
:10098400821a90429b4101241000c91b5b42c91a80
:100994000b0200d481e74d026d0a0600f4e040f238
:1009a400ff75ab420bd140f2ff7476e740f2ff755e
:1009b400ac4200d171e780251e002d042f43382e50
:1009c4002adc1f2e17dc20233d009b1b9d40ac46d8
:1009d40015000193f54063461d43019bf7409a407f
:1009e400531e9a412a43821a90428041c91b4042b5
:1009f400091a1000cce733003d00203bdd40002302
:100a0400202e03d040239e1b3b00b3401a43531ea9
:100a14009a412a430027e6e73a43571eba41f9e7c9
:100a2400ffff7fffffff0f80002b48d0b4b90c00fd
:100a340004437cb1db434bb9101a824292416346b2
:100a4400791a5242891a34000093a1e740f2ff74e4
:100a5400a6420bd139001000340041e040f2ff748b
:100a6400a642f7d0802424045b422143382b22dca5
:100a74001f2b0fdc20240d00e41aa54000942c0049
:100a84000500dd402543009cd940a040441ea04100
:100a94002843d1e71c000d00203ce5400024202b16
:100aa40003d04024e31a99400c002043441ea04183
:100ab40028430021c0e70843411e8841f9e7631c2d
:100ac4005b055b0d012b4ddc3b000e00134306431d
:100ad4002cbb46b91800002b00d1a9e03900100046
:100ae40063460093d9e6002b00d1d6e6851aa842c6
:100af400b641cb1b76429b1b80263604334206d07c
:100b0400101a82429241791a5242891ae8e728005f
:100b14001843002800d18be019002800bde646b92f
:100b24001800002b00d186e06346390010000093c2
:100b340039e740f2ff74002b00d1aee680244d0764
:100b4400c008c90824032843214200d1f8e6fb0861
:100b5400234200d0f4e619006346d2087807104314
:100b64000093ede6861ab0429b41cd1b5b42ed1a21
:100b740080231b041d422cd0161ab24292416346b4
:100b8400791a52428d1a009355b3280002f058ff87
:100b94000300083b1f2b28dc202231003000d21a2e
:100ba4009d40d14098400d439c4233dc1c1b611c8a
:100bb4001f291fdc20232a005b1a04009840cd4023
:100bc4009a40cc40431e98412900224310430024fc
:100bd40063e6300028430028d6d10100040028e051
:100be400300002f02dff2030d2e735002838854050
:100bf4000020d9e72b001f3ce3400022202903d02a
:100c04004022511a2a008a401043421e904100217a
:100c14001843dce70d49e41a29403ee63900100088
:100c2400a2e63900100038e634000021080034e65a
:100c34000100009031e6802140f2ff74c903f8e717
:100c4400002108003fe619004de6c046ffff7fff84
:100c5400f0b58bb005934b0001920c03ca0f5b0dea
:100c64000600240b04920392002b47d040f2ff723b
:100c7400934265d08022410f12040a43e4001443d6
:100c8400c64ac5009b1800270293059b019a580089
:100c94001e03400ddb0f360b059300285fd040f296
:100ca400ff7398427ed08023520f1b041343f60037
:100cb4001e43ba4a019b8218db0094460022059821
:100cc4000499414001910299b8006144104307918d
:100cd4000138013106910e2877d803f0f3fa720037
:100ce4007200730169016901b40173016901b401fe
:100cf4006901730167016701670154012500054318
:100d04002db39cb1200002f09bfe01000b391c297d
:100d140010dc1d2302005b1a31003500083a9440b0
:100d2400d94095400c439e4b1b1aace702f088fe59
:100d34002030eae703003400283b9c400025f2e71a
:100d4400050025433db10500029303279de72c00d0
:100d54000295012799e72c000293022795e7019b4e
:100d6400334333b39eb1300002f06afe01000b3905
:100d74001c2911dc1d2302005b1a0199083ad94091
:100d8400019b964093400e43854a121a95e7100042
:100d940002f056fe2030e9e70300019e283b9e4006
:100da4000023f1e7019b33433bb113008446032244
:100db40085e71e009c46012281e71e00844602222c
:100dc4007de734001d001700f2e0190c9bb202917c
:100dd40019002a0c514318008c46029f0299adb2a7
:100de400684351436f4304916744010cc91903904c
:100df4008c4506d9049f380080277f02bc46604496
:100e04000490684680890f0c090409180991310c73
:100e1400b6b2039130003100bc46039f694350438e
:100e24007d437a432d180f0c7d19a84202d98020e6
:100e340040021218280c82182d0489b205926a18ef
:100e440008921800089962468c46029f210ca4b2ad
:100e540060434b43674362449446029dff18020c6f
:100e6400d2194d43934202d980235b02ed18370017
:100e7400130c5b190293039b67434e435c43594332
:100e8400a4193b0c120480b21c191018a64202d9f2
:100e940080235b02c918049b220463441e00089b40
:100ea400bfb29e42ad418619d2198642bf41029813
:100eb400059b84466d42d218ab189c440393059b52
:100ec40060469a429241039b5242ab429b415b4231
:100ed4007f421a43029b3818240c1219b842bf41ae
:100ee4009c45a4417f4264423c4314196418c30dd9
:100ef40064021c43099b75021d43691e8d41f60d56
:100f0400354340020543e30161d501226b081540d6
:100f14001d43e307d4401d4340f2ff32069b9b1858
:100f2400002b57dd6a0709d00f222a40042a05d076
:100f34002a1daa42ad416d4264191500e20105d58e
:100f440040f2004c174b1c40069b634440f2fe7277
:100f5400934200dd85e06207ed081543e4080021b3
:100f640024030a0d1205240b14430f4a5b05144095
:100f74005b082343019a5b00d2075b0813432800f4
:100f840019000bb0f0bd8022120314425fd0164248
:100f94005dd134001d00059b039358e001fcffff65
:100fa4000dfcfffffffffffeffff0f80049b01937b
:100fb400022f56d0032f52d0012fadd100252c0083
:100fc4002b00cce71d00059b34000193fbe6079b37
:100fd4000693a1e70122d21a382aefdc1f2a20dc6b
:100fe400202321009b1a28009d409940d0406b1e6d
:100ff4009d41d44001430d436b0709d00f232b407f
:10100400042b05d02b1dab42ad416d4264191d006c
:1010140080231b042340002b9dd0002401232500a2
:101024009de71f214942cb1a2100d9400023202ae1
:1010340003d040239a1a230093401d436b1e9d4105
:1010440000240d43d8e7802400252403039580233e
:101054001b031c43039b019340f2ff737fe7019b37
:081064009ae700252c00f7e7d4
:020000040000fa
:10106c00f0b59bb00390029115001c0020b1836970
:10107c0004930bb902f050f9964b029a9a4260d144
:10108c00039b5b680293029b9b891b0767d5029ba2
:10109c001b690493002b62d000220d92202208ab16
:1010ac005a76302204959a76049d2b78002b60d1c9
:1010bc00049bee1a66b13300049a0299039802f06d
:1010cc00d7fb431c00d15be10d9b9e1904930d963d
:1010dc002b78002b00d153e1012208ae52427260f2
:1010ec005322002304a97c4f521801350893f36056
:1010fc00b3601370223705222978380003f0a1f869
:10110c006a1c002839d13068c30604d5532320212a
:10111c0004afdb191970030704d553232b2104af3b
:10112c00db1919702b782a2b2fd000200a21f36899
:10113c002a78303a092a00d870e000282cd0f360c5
:10114c002ae0664b029a9a4202d1039b9b6899e76c
:10115c00634b029a9a4296d1039bdb6892e7029901
:10116c00039801f09df8002896d0012040421bb056
:10117c00f0bd252b9cd0013597e70123c01b834084
:10118c00316815000b433360b5e72368211d002b34
:10119c003edbf36015000c002b782e2b0ad16b78fc
:1011ac006a1c2a2b42d122680235231d002a3adb05
:1011bc001c007260484f297828370322380003f04e
:1011cc0040f830b14023c01b8340326801351343d3
:1011dc003360414f6b1c38002978532506222c3084
:1011ec000493317603f02df8327e04abed18692aa6
:1011fc0032d03ed8582a00d1c9e029d8002a00d1d3
:10120c00f2e0522504abed1801232a700c9350e048
:10121c005b42f360022303433360bbe74b4301356e
:10122c009b18012084e701225242c1e700231500dc
:10123c000a201a00736029783039092903d9002b48
:10124c00b8d07260b6e74243013552180123f2e779
:10125c00632a26d0642ad4d10899221d0b062ed5d8
:10126c0023681400002b02da2d225b422a700a221a
:10127c0045e0732a00d1b9e008d86f2a24d0702a2f
:10128c00bfd1202332681343336003e0752a1bd08f
:10129c00782ab6d15523782204a95b181a70113715
:1012ac0079e0522504abed18237804342b7001231c
:1012bc0033615323002204a95b181a7042e023689f
:1012cc004906ced51bb2cce7089b211d180609d5c3
:1012dc0023680be054400000043c00007440000004
:1012ec00344000005b06f3d523689bb20c006f2ad8
:1012fc0069d00a225321002004ad491908700999bc
:10130c000a91002900da97e00420089d854308958e
:10131c00002b5ad1002900d090e0532504abed18d6
:10132c00082a0ad1089b0593db0706d5099a0c9b62
:10133c009a4202dc3023013d2b70532304aa9b18e4
:10134c005b1b0c93404b07aa009308a9029b0398c4
:10135c0001f084f8431c13d00c9b2a0002990398cb
:10136c0002f086fa431c0bd0089b002505939b07c3
:10137c0056d4079a0b9b934200da13005a1c56d191
:10138c00029b0d989b895b0600d4f0e6ede6552395
:10139c0004a95b181a70089a211d130601d523683d
:1013ac0003e05306fbd523689bb20c00d10702d592
:1013bc0020210a4308921022002b9bd1202108984f
:1013cc008843089096e7082294e7532504a96d18e2
:1013dc00b3fbf2f1100048431b1afb5c013d2b7070
:1013ec000b000029f4d19be73261abe725687268ea
:1013fc0000212800271d02f024ff08b1401b70605b
:10140c00099b3c0005930c9353e7292204a9012363
:10141c0052180398029902f02bfa431cb0d00135f4
:10142c000b9b079a05939b1a9d42eedba1e70d9a45
:10143c00d31805920d9337e6002bc6d1522504ab79
:0c144c00ed183b782b706be77d3800003a
:020000040000fa
:10145800f00200201c00000000000000c80200206c
:101468002800000000000000200300200400000005
:10147800010000001b000000000000202700000001
:1014880000000000280000200c0000000000000000
:101498003400002060000000000000002403002049
:1014a8000400000000000000940000203400000048
:1014b800000000000c0300201400000001000000e0
:1014c8006d3c00005d3d0000d53e0000b9430000c2
:1014d8009d27000098020020300000000100000055
:1014e800000300006a000000640000000000000023
:1014f80000000000000000000000000000000000e4
:1015080000000000dc050000140000000c030020af
:10151800cc0000206c010000010000004300000026
:1015280000000000000000000000000000000000b3
:101538000000000000000000000000004300000060
:101548000000000000000000000000000000000093
:101558000000000000000000000000004300000040
:101568000000000000000000000000000000000073
:101578000000000000000000000000004300000020
:101588000000000000000000000000000000000053
:101598000000000000000000000000004300000000
:1015a8000000000000000000000000000000000033
:1015b80000000000000000000000000043000000e0
:1015c8000000000000000000000000000000000013
:1015d80000000000000000000000000043000000c0
:1015e80000000000000000000000000000000000f3
:1015f8000000000000000000000000000942000098
:10160800f53f000000000000b6200000e5430000a0
:10161800e4430000e4430000e4430000e443000026
:10162800e4430000e4430000e4430000e443000016
:10163800e4430000ffffffffffffffffffffffff87
:10164800ffff00000100415343494900000000002a
:101658000000000000000000000000000000000082
:101668000000000000004153434949000000000009
:101678000000000000000000000000000000000062
:101688000000000000000000280300200400000003
:10169800010000003802002038020020600000002d
:1016a80001000000000000005440000074400000e9
:1016b80034400000000000000000000000000000ae
:1016c8000000000000000000000000000000000012
:1016d8000000000000000000000000000000000002
:1016e80000000000000000000000000000000000f2
:1016f80000000000000000000000000000000000e2
:10170800000000002c03002004000000000000007e
:10171800300300200400000000000000c800002082
:101728000400000000000000340300200400000052
:101738000000000000000000000000002222222219
:020000040000fa
:101748007377697463682069732070726573736551
:10175800642100000a0a00002a2a2a2a2a2a2a2a98
:101768002a2a2a2a2a2a2a2a2a2a2a2a2a2a2a2ad1
:101778002a2a2a2a2a2a2a2a2a2a2a2a2a2a2a2ac1
:101788002a2a2a2a2a2a2a2a2a2a2a2a2a2a2a2ab1
:101798002a2a2a2a2a2a00004d616b65727320645e
:1017a8006576656c6f70656420612073656375721a
:1017b8006520706c6174666f726d20647572696ef5
:1017c8006720434f5649442d313920706572696f3f
:1017d8006420746f00000000737570706f7274205d
:1017e800636f6d6d756e697469657320616e6420d1
:1017f800646576696365206d616e7566616374758d
:1018080072657273206f6e2072652d7468696e6bd5
:10181800696e670073656375726974792073747291
:101828006174656769657320666f7220746865699d
:1018380072206675747572652070726f6475637452
:1018480020726f61646d61700a00000054727573d4
:1018580074696679207465616d3a204a616e7573a2
:101868002c204d6174686961732c20616e64204876
:1018780061690a00426f6172642054657374206163
:1018880070706c69636174696f6e0a005665727373
:10189800696f6e3a20253032642e253032640a0092
:1018a8000a0a506c656173652076657269667920ed
:1018b8006966204c454420697320626c696e6b69c7
:1018c8006e6720616e6420796f7520726563656943
:1018d800766520612073656972616c206e756d6232
:1018e80065722066726f6d20415445434336303827
:1018f800000000000a0a506c65617365207072650b
:1019080073732053573220746f2074657374207377
:1019180077697463682066756e6374696f6e616c4d
:10192800697479000a0a54657374696e67204154b2
:10193800454343363038000053657269616c204e68
:10194800756d626572206f662074686520446576df
:101958006963653a2025730d0a0a0000415445431e
:101968004336303820636f756c64206e6f74206264
:101978006520696e697469616c697a656400c0463e
:020000040000fa
:1019880010b56d4b9b7d8bb16b4b5b8b9b070ed55d
:1019980002226a4b1a77694b1b7f5bb2013300d175
:1019a8009be0664b1b7f052b00d1aee010bd624b60
:1019b8005b8bdb0705d5614bff221a7702225a772a
:1019c800e9e75d4b5b8b5b0705d55c4bff221a771c
:1019d80001225a77dfe7594b1b7f5bb2022b25d0d8
:1019e80011dd032b5cd0042bd5d1544a5369d2683e
:1019f80093422ad0514a5168581c5061c95c282327
:101a08004d4ad154c7e7012bc5d14c4b1b881b0a43
:101a1800782213435b0001221343474a5362d36978
:101a2800002bfcd10322454b1a77b4e7434bdb6804
:101a38002bb1424b1888002101f028faabe73f4b45
:101a48001888012101f022faa5e73c4b1b6963b90c
:101a5800394a5168c0239b020b435360d369002b5a
:101a6800fcd10522354b1a7795e7344b1b887f2b21
:101a78000dd90121314a11778b4048f200021343f6
:101a88002d4a53622c4ad369002bfcd183e70321ea
:101a98002a4a11775b0001221343274a5362f1e770
:101aa800264a1369013b92699a4209d0234b9968e7
:101ab8009a69501c986128231f48c35c8b546ae7b5
:101ac8001d4a5168e023db020b435360d369002ba6
:101ad800fcd10522194b1a77e8e70022174b1a7731
:101ae800154a5168c0239b020b435360d369002bee
:101af800fcd18322104b1a76104b1b6a002b00d1a5
:101b080054e70e4a506a984750e70c4b00221a7760
:101b18005a778322084b1a76190030224b8b1340d0
:101b2800102bfbd1054b1b6a002b00d13ee7034a63
:101b3800506a98473ae7c04600080042c8020020a9
:020000040000fa
:101b4800f0b5450085b0c30f44022d0e0391640a19
:101b58000293019355b1ff2d37d08023e400db04b5
:101b68007f3d1c432e000023009309e09cb3200016
:101b780001f064ff7626431f9c407642361a009592
:101b8800039b5d005f022d0edb0f7f0a03932db3cd
:101b9800ff2d2dd0802228000025ff00d2041743f6
:101ba8007f38039b029a361a5a40009b98002843b4
:101bb80001380e2824d802f079fb4e9d639d979d2d
:101bc800634e4e976379797954002e000323002cd5
:101bd800cad10223c8e726000123c5e738006fb140
:101be80001f02cff431f9f4076235b42181ad8e769
:101bf80028000325002fd4d10225d2e70125d0e7fc
:101c080064017801844228d31a210123241a01256a
:101c180027005b006400002f01dba04201d8241ad2
:101c28002b4301390029f3d1611e8c411c4331003b
:101c38007f3100293cdd630704d00f232340042ba8
:101c480000d00434230103d531002c4b80311c40d3
:101c5800e308fe2921dd002310e0013e1b210023bb
:101c6800d5e78023db031c4204d01f4202d13c008d
:101c7800039b01938023019adb032343ff210ce09c
:101c88003c00039a0095009b022be4d0032b2fd035
:101c98000023009819000128c9d15802c9b2c90502
:101ca800400ad2070843104305b0f0bd029aeae79c
:101cb8000120411a1b291ddc23002020cb40411a9a
:101cc8008c40611e8c412343590704d00f211940d1
:101cd800042900d004338021c9041940db080029f5
:101ce800dbd000230121d8e780240023e403c0e7e8
:101cf8000192bfe700231900cfe7c046fffffff7b7
:020000040000fa
:101d0800f0b5de4657464e464546e0b587b08246b2
:101d1800029117001800049310ab1a78934611ab80
:101d28001a78039212ab1a7805925246002a00d10b
:101d38009ee0002f00d1a3e0002800d1a2e00368b4
:101d4800984600230360002400250e00002968d06f
:101d580040f20f09464601970ce0039b4bb103354f
:101d6800ae4200d292e02023019a135402e005000b
:101d780000e00500a81c864200d289e053461b5d9e
:101d8800019a521994461909092920d8013230318b
:101d98006746397049460b40092b1dd937331370f4
:101da8000134029ba3421ad0002ce0d05b46002be2
:101db800d3d04b462342d0d10435ae4264d3019be5
:101dc8009c4660440222334902f0a0fad2e701326d
:101dd800373167463970dde730331370e0e7b046d6
:101de8000600019f059b23b3d8b13c003b189b46d6
:101df80040f2030a81465f46a34603e0327001348d
:101e0800a7420cd02600257802f0eef94019437855
:101e1800524613402a00022bf0d1203aeee74e46f4
:101e28005f46049b1e600020b04522d90023bb55a5
:101e38001fe00028f5d03c003b189b4640f2030aff
:101e480081465f46a34603e032700134bc420cd0a1
:101e58002600257802f0c8f9401943785246134005
:101e68002a00012bf0d12032eee74e465f46d8e734
:101e7800e22007b03cbc90469946a246ab46f0bd6e
:101e8800e220f6e7e220f4e7ed20f2e7ed20f0e7c4
:081e9800ed20eee740440000dc
:020000040000fa
:101ea000f7b58a8905000c0013075ed44b68002b38
:101eb00004dc0b6c002b01dc0020febde76a002f68
:101ec000fad000232e682b6041f200031a4092b32f
:101ed000606da3895b0705d56368c01a636b0bb19e
:101ee000236cc01a0200216a00232800e76ab84761
:101ef000a189431c06d12b681d2b30d82b4ada4010
:101f0000d3072cd50023636023692360cb0404d559
:101f1000431c01d12b6803b96065616b2e600029f9
:101f2000cad023004433994202d0280000f028ff91
:101f300000206063c1e70123216a2800b847431ce1
:101f4000c7d12b68002bc4d01d2b01d0162b01d17b
:101f50002e60b1e74023a2891343a381ade740235c
:101f60000b430120a3814042a7e70f69002fa3d0b4
:101f70000b680f60db1b01930023920700d14b69b4
:101f8000a360019b002b00dc96e7019b3a00216acd
:101f90002800a66ab047002803dc4023a289134327
:101fa000dfe7019b3f181b1a0193eae7010040207d
:020000040000fa
:101fb000f0b5de4657464e464546e0b591b00500c1
:101fc00002911700039300230f93e224022807d9fc
:101fd000200011b03cbc90469946a246ab46f0bded
:101fe000022821d000241a9b002bf1d0e224039b6d
:101ff000002bedd00faa0299280000f0e5fc0400a8
:102000000028e5d11a9bdb19e2240f9a9342dfd80e
:102010007b09984640f2200a40f2000b00265c46fd
:10202000ab46059757461ee00f29d1d8dae743465d
:102030005b010f9ad31a1f2b17d8059b9b199b087e
:1020400007241c40042710e0039b981907ab9c460b
:1020500061442a0002f05ef97619202f23d0013462
:102060001a9bb34223d9202fe1d0e3b242466946fe
:10207000ca74ca7c019707a900910299584600f0da
:102080004ffd8146a8b94346db001b199b00002188
:102090000598984200d9c11a7b1a1a9a951b9d423d
:1020a000d2d91d00d0e740f2010ce044d8e74c46fd
:0620b0008ee704008ce73e
:020000040000fa
:1020b6000020202020202020202028282828282012
:1020c600202020202020202020202020202020200a
:1020d6002088101010101010101010101010101072
:1020e6001004040404040404040404101010101062
:1020f600101041414141414101010101010101012c
:10210600010101010101010101010101101010107d
:1021160010104242424242420202020202020202fd
:102126000202020202020202020202021010101051
:102136002000000000000000000000000000000079
:102146000000000000000000000000000000000089
:102156000000000000000000000000000000000079
:102166000000000000000000000000000000000069
:102176000000000000000000000000000000000059
:102186000000000000000000000000000000000049
:102196000000000000000000000000000000000039
:1021a6000000000000000000000000000000000029
:0121b6000028
:020000040000fa
:1021b80070b5002001f07cfc02f050f800222e4996
:1021c800052001f035fe2d4c2000143002f082f875
:1021d80025001835280002f07df82000583002f05c
:1021e80079f8274c2000183002f074f82000543099
:1021f80002f070f8234c20000c3002f06bf820003d
:10220800343002f067f820004c306322002101f0de
:10221800fdfe280002f05ef82000603002f05af857
:10222800194c2000343002f055f82000643002f0d8
:1022380051f8164801f00af8c8b9154d280001f000
:10224800bffb144c144b22000921280002f010f89f
:1022580021000d48783001f0d9fe01f0b9ff0f4d8b
:102268008024ec6140f2e83001f044fdf9e70c48c5
:102278001c3002f02ff8f0e739430000481700003f
:10228800c817000048180000c8180000980200206d
:10229800000000200c000020200300200032004035
:0422a80048190000d1
:020000040000fa
:1022ac00344b70b51d6806000c0025b1ab6913b931
:1022bc00280001f031f8304b9c420fd16c680c2394
:1022cc00e25e93b219072cd4d90611d409233360da
:1022dc00402301201343a381404270bd274b9c42f5
:1022ec0001d1ac68ebe7264b9c42e8d1ec68e6e701
:1022fc005b0712d5616b41b123004433994202d084
:10230c00300000f037fd002363632422a38993433c
:10231c00a38100236360236923600823a2891343ec
:10232c00a38123695bb940f2802140f20022a3898a
:10233c000b40934203d02100300000f0d9fe012362
:10234c00a28913408bb10023a36063695b42a36134
:10235c0023690020002bc0d10c23e25e1306bcd5f0
:10236c0040231343a3810138b7e7920700d4636974
:10237c00a360ede7280300205440000074400000e7
:04238c0034400000d9
:020000040000fa
:1023900002222f4b1a7600222e4b1a742e4a2f4bf4
:1023a0005a62190008224b681a42fcd1412180234d
:1023b0002a4ad15010008021402243581a42fcd0b2
:1023c000234b20225a633f221a6318003c21042227
:1023d000435c1342fcd102212c231d4ad15410002e
:1023e0003c210222435c1342fcd1194840210322c4
:1023f000435c1340032bfbd1194a184b1a62190096
:1024000004224b681a42fcd140218c23134ad1503c
:1024100010008c21402243581a42fcd04021ac23aa
:102420000e4ad1501000ac21402243581a42fcd031
:102430004021b023094ad1501000b0214022435816
:102440001a42fcd041f6f772064bda617047c0467b
:10245000001000400014004005010400001c004072
:08246000070102000008004022
:020000040000fa
:10246800f7b5150001938a680b6900900c00934238
:1024780000da130022002b60433212780ab10133cc
:102488002b6023689b0602d52b6802332b60062736
:1024980023681f403fb3230043331b785a1e9341e0
:1024a8002268920630d42200019943320098089e8f
:1024b800b047431c25d0062320682a68e1680340fa
:1024c8000025042b03d18d1aeb43db171d40a368ad
:1024d8002269934201dd9b1aed180027bd4220d1e5
:1024e800002010e00137e3682a689b1a9f42d2da7d
:1024f80022000123193201990098089eb047431c15
:10250800f0d101204042febd3020e118433108706f
:1025180021005a1c45310978a21843320233117040
:10252800c1e7220001231a3201990098089eb0479a
:08253800431ce6d00137d1e796
:020000040000fa
:1025400070b505000e0018b183690bb900f0eafe02
:10255000ab69ac6813b9280000f0e4fe294b9c423b
:1025600019d16c680c23e25e42f200031a4205d1d5
:102570001343a381226e244b13402366a3891b07b8
:1025800001d52369fbb921002800fff78ffed0b1e8
:102590000120404270bd1d4b9c4201d1ac68e1e777
:1025a0001b4b9c42ded1ec68dce7013b0136a360ab
:1025b000002b04daa269934216db0a2914d023689f
:1025c0005a1c226019703178a3680029edd1013bb3
:1025d000a360002b0fda22000a21280000f07ef809
:1025e000431cd5d00a20d5e72200280000f076f859
:1025f000431ce8d1cce70a2023685a1c22601870db
:10260000c8e7c04654400000ffdfffff74400000f1
:042610003440000052
:020000040000fa
:10261400f0b5c64600b582b00191170001f010ff75
:102624000600002853d0c56a002d52d03b88984636
:10263400846a00233b80ed2043461bb902b004bcee
:102644009046f0bdab68984703000028fad100e03b
:10265400013c002c13ddabb930794008012201990b
:102664002b68984703000028f2d0ab6898470028ed
:10267400fbd1eb68984743424341dbb2e8e7f020e3
:10268400002bdbd0019b1b78e420032bd6d99bb213
:10269400ed209845d2d3013b9ab2019b01333079a6
:1026a400400819002b6898470300f020002bc5d080
:1026b400ab6898470028fbd1eb6898470300f020eb
:1026c400002bbbd1019b1b783b800020b6e7e220a6
:0626d400b4e7e220b2e7ca
:020000040000fa
:0226da00704747
:020000040000fa
:1026dc00f8b505000e00140018b183690bb900f0b1
:1026ec001bfe274b9c4230d16c68a369a360a38965
:1026fc001b0734d5236993b30c23e25e42f200032b
:10270c00f7b2f6b21a4234d023682269981a636978
:10271c00984204db2100280000f098ff28bba36836
:10272c000130013ba36023685a1c22601f7063694f
:10273c00984204d0a389db0719d50a2e17d12100a2
:10274c00280000f083ff90b10fe00e4b9c4201d1aa
:10275c00ac68cae70c4b9c42c7d1ec68c5e72100ba
:10276c002800fff79dfd0028c6d0012676423000d8
:10277c00f8bd1343a381226e044b13402366c3e7b9
:10278c00544000007440000034400000ffdfffffa5
:020000040000fa
:10279c00f8b500284cd0046801b926496300002024
:1027ac00994244d3080000f0dffc051c200000f027
:1027bc00dbfc011c281cfff7c1f900f093fa0600a2
:1027cc000f00281c00f08efa1b4a1c4bfef73cfa3b
:1027dc0000221b4bfdf798fc02000b003000390067
:1027ec00fdf762ff0022174bfef72efa01f07af983
:1027fc0001000020d9b1144a1368022083431360ee
:10280c00d369002bfcd1ff2001400f4bd9601a6813
:10281c0002210a431a601a00d369002bfcd1102242
:10282c00094b5a831a00d369002bfcd10120f8bd47
:10283c000020fce70048e80148afbc9af2d77a3e8a
:0c284c00000024400000e03f00080042b3
:020000040000fa
:10285800032370b5cd1c9d43083506000c2d1cd2f2
:102868000c25a9421bd8300001f0adf9254a14689f
:102878002100c1b9244c23681bb9300001f006fcc3
:1028880020602900300001f001fc431c2dd10c23ed
:102898003000336001f0e5f903e0002de1da0c23a4
:1028a8003360002070bd0b685b1b1bd40b2b03d956
:1028b8000b60cc18256003e08c420fd1636813606d
:1028c800300001f0cef9200007220b30231d904381
:1028d800c31a002be6d05a42e250e3e74b68636024
:1028e8000c00ede70c004968c3e70323c41c9c43b4
:1028f800a042dfd0211a300001f0c8fb431cd9d117
:0c290800c5e7c0462c030020300300206f
:020000040000fa
:10291400f0b5c64600b584b00400019001f090fd06
:10292400060000230393002846d0c56a002d45d035
:10293400876a83689846224b984503d01900200083
:1029440001f0b3faab6898470028fbd1012203a930
:102954006b689847ab68984704000028fad1b08c9c
:1029640001f008fd00e0013f002f13ddc4b9307908
:102974004008042203a92b68984704000028f2d0d9
:10298400ab6898470028fbd1eb6898474442444120
:10299400e4b2e8e7f0201cb904b004bc9046f0bdf2
:1029a400074b984503d04146019801f07efa042173
:1029b40003a800f025feefe7e220ede7e220ebe7d5
:0429c400a0860100e8
:020000040000fa
:1029c800002a50d0294b1b685b685b685b7893b919
:1029d800012808d018b1022809d0e22044e0582381
:1029e8001360002040e04023136000203ce02023d7
:1029f8001360002038e0042b06d001281bd0b0b1aa
:102a080002281cd0e2202fe0012808d018b10228a3
:102a180009d0e22028e058231360002024e0002396
:102a28001360002020e02023136000201ce0802396
:102a38001360002018e040231360002014e00729e9
:102a480008d908290ad0e2200f290dd84823136095
:102a5800002009e024231360002005e040f2a013c1
:102a68001360002000e0e2207047c04624030020e5
:020000040000fa
:102a7800f0b54d006d0d85b05e00ac461d03db0f53
:102a8800019340f2ff730c030290240bc90f0392c9
:102a98002d0b760d9c4503d12700074302235fbb0e
:102aa80040f2ff739e4203d12f00174302231fbb3e
:102ab800634600271bb9204347424741ffb20eb97e
:102ac8002a43e2b1ffb1019b013b0120034313e01c
:102ad800b44501da4b1ef8e7ac4219d809d1029b7c
:102ae800039a934214d8029a03983b008242f1d386
:102af80002e03b00ac42edd3180005b0f0bd330056
:102b0800002ff9d104e0019b994201d1b445dfdde2
:082b1800012349420b43efe7e2
:020000040000fa
:102b2000f0b5b9b003903ea840c8077856b1244824
:102b300000680568042f17d0e224202f04d020005d
:102b400039b0f0bde224fae70e2002aca44660449e
:102b50000090039800f0f8fe04000028efd18023d5
:102b6000039a1a4303920ae00e2002aca446604482
:102b70000090039800f0e8fe04000028dfd106a9c9
:102b80006b461b7bcb700e2302aa944663441b88c2
:102b90008b80280001f07afb04000028cfd1084b7d
:102ba000196806a800f05bf804000028c7d13a00b5
:102bb000172102ab9c466144300001f0abfbbee73d
:042bc00024030020ca
:020000040000fa
:102bc400f7b51e035c00db0f009340f2ff730d03a7
:102bd4004f0084462d0b7f0dc90f0192360b640df7
:102be4009f4202d12b0003434bbb40f2ff739c4234
:102bf40002d13300134313bb00231fb928434342bc
:102c04004341dbb20cb93243e2b1fbb10098013865
:102c1400012103e0a74203da0120013908430de052
:102c2400b54218d807d1019a944514d81800019bcd
:102c34009c45f1d302e01800b542edd3febd02205d
:102c44004042fbe72000002bf8d104e0009a9142b7
:0a2c540001d1a742dedd4842dae7b5
:020000040000fa
:102c5e00f0b585b005000f00486801f080fa040059
:102c6e0028b1786801f046fb200005b0f0bd6a7807
:102c7e002900786801f0b1fb04000028f1d1012091
:102c8e0001f07bfb40f2e346ab1d0193c0252a0009
:102c9e000021019c200001f078fb02abdd809a1d23
:102cae002100786801f09dfb040088b1022001f03c
:102cbe0064fb013e002eead1d3e7019800f065ffd8
:102cce0004000028cdd1019800f057fb0400c8e79e
:102cde0002abdc88032cf0d860426041e630040081
:022cee00bfe73e
:020000040000fa
:102cf00070b54400240e631c4102dbb24d0ac60fbe
:102d0000012b16dd40f28033090be4186d07002318
:102d10000903080b190d0905014318486405014012
:102d200064080c436400f60764083443280021005b
:102d300070bdc4b92100002de9d0280000f082fe4a
:102d40000a280adc0b2329001b1ad940030015337b
:102d50009d4040f28934241ad9e7030029000b3b37
:102d600099402500f5e73db10c0b802109036d0763
:102d7000214340f2ff74cae72900fae7ffff0f8002
:020000040000fa
:102d800070b5050079b10c1f2368002b00dae41838
:102d9000280000f01cff1c4a13682bb96360146004
:102da000280000f062ff70bda34209d921686018b5
:102db0008342f3d118685b6841182160eee7130085
:102dc0005a680ab1a242fad919685818a0420bd120
:102dd00020680918581819608242e1d110685268b9
:102de000411819605a60dbe7a04202d90c232b601e
:102df000d6e721686018824203d1106852684118f2
:0c2e0000216062605c60cbe72c030020c6
:020000040000fa
:102e0c001e4a1f4b70b50021934203d21970013337
:102e1c009342fbd1002503261a4803684168b3b9d5
:102e2c0059b383680c30bbb100230022845c9c54e2
:102e3c0001328a42fad333000b405a1e934189085f
:102e4c0059188900401803684168002be8d0826843
:102e5c000c303ab90029e0d059181d7001338b425f
:102e6c00fbd1dae70029e0d133000b405a1e934125
:102e7c008908591889004018e5e770bdcc0000207e
:082e8c000000002058140000b2
:020000040000fa
:102e940010b51b4b00225a619a611a4b83221a7691
:102ea4005a68194c22405a601a00d369002bfcd18d
:102eb4000022134b5a777f2811d961b101221a7766
:102ec400400048f2000318430e4b58620d4ad36980
:102ed400002bfcd110bd0422094b1a77f0e741b155
:102ee4000322074b1a77400001231843054b58620d
:102ef400ece70422024b1a774000024b5862e5e7e4
:0c2f0400c802002000080042fffffbff95
:020000040000fa
:102f100010b5bff35f8f62b6194b40f204315a58b7
:102f20001202120ac020000602435a5080221a6080
:102f300014315a58134c1440c022120422435a50e0
:102f40008022d2041a605a581202120a02435a50be
:102f5000802212051a6004315a58ff208243c02093
:102f600002435a50802252051a605a5806480240bd
:102f70004cf2000002435a50802292051a6010bda4
:0c2f800000e100e0ffff00ffff00ffff8a
:020000040000fa
:102f8c008446101c62468c46191c634600e0c04601
:102f9c001fb5fff76bfd002801d40021c8421fbdef
:102fac0010b500f01bf94042013010bd10b5fff711
:102fbc005dfd002801db002010bd012010bdc046c6
:102fcc0010b5fff753fd002801dd002010bd0120d6
:102fdc0010bdc04610b5fff7effd002801dc002046
:102fec0010bd012010bdc04610b5fff7e5fd00284f
:0c2ffc0001da002010bd012010bdc0460d
:020000040000fa
:10300800f0b585b001900e00140001f0b9f8012860
:103018001ad1731efe2b17d8050002ab1e710027ac
:10302800af4220d003abd95da368013ba360002b5e
:1030380004daa269934219db0a2917d023685a1cbb
:10304800226019700137ebe723003200583303a9d7
:10305800019800f033fc0500431ce0d14023060032
:10306800a2891343a381300005b0f0bd2200019866
:0c307800fff730fb431ce5d10600f4e735
:020000040000fa
:10308400f8b51c4b07001e68b36913b9300000f093
:1030940047f94836b4687368013b03d5336833b1e4
:1030a4003668f7e70c22a55e6db16434f4e70421b9
:1030b400380000f067fe30600028f1d10c230400d2
:1030c4003b602000f8bd01235b42e3812000012323
:1030d4002566a3812560a560656025616561a5619c
:1030e40008222900583001f055f96563a563a564e9
:0830f400e564e6e75444000026
:020000040000fa
:1030fc00f7b502268b8905000c00334206d023005d
:10310c0047332360236101236361f7bd01ab6a463a
:10311c0000f03efb009907002800fff797fb30b941
:10312c000c22a35e9a05f0d41e43a681e7e70d4b53
:10313c00ab628023a28920601343a381009b206192
:10314c006361019b4bb10e23e15e280000f0bcffd4
:10315c0018b10123a2891343a381a0893843a0810c
:08316c00d3e7c046a9430000af
:020000040000fa
:1031740070b50300040040b100f062fc9e231b1aea
:10318400962b08dc9622d21a9440d8b26402640ac0
:10319400c005204370bd992b0addb9222100d21a43
:1031a40091400a00511e8a410521091acc4014435a
:1031b40099212200c91a002900dd8a401400084917
:1031c4000c40550704d00f252a40042a00d00434ab
:1031d400620102d59f230c401b1ae408d5e7c046c0
:1031e400fffffffbf0b5060040f2ff7085b00c0353
:1031f4004d00c90f1f0301915900db0f240b6d0d06
:1032040003923f0b490d0293854206d123003343b9
:103214000120c3b9a94216d101e0814202d13a4347
:10322400012082b901208d420dd1bc420bd1039af9
:10323400964208d1019b029a934206d01db93443a9
:0e3244002000441ea04105b0f0bd0020fbe7b5
:020000040000fa
:02325200fee795
:020000040000fa
:1032540010b582b00400144b1b680bb100f0baff28
:103264001249134b0b60134b4b60200000f0e2fc3f
:1032740028b90e4a0c4b1a606378032b01d002b0b4
:1032840010bd136801330122009213220021fef7be
:103294008dfe0028f3d1044b1b681a68537807216c
:1032a4008b435370ebe7c0462403002094000020b6
:0832b400c40000209c00002072
:020000040000fa
:1032bc00f0b5d6464f464646c0b5944600b389464f
:1032cc00884680440023134815e06d00edb2013ea2
:1032dc0066b1df0b5b009bb22c000c40621e94416c
:1032ec00e4b2bc42f1d043409bb2eee740f2010a9b
:1032fc00d144c14505d04a46117808260125e8e796
:10330c000023624613701b0a53701cbc90469946ee
:08331c00a246f0bd0580ffff91
:020000040000fa
:10332400836913b5040043bb8364c3640365134b0f
:10333400134a1b6882620193984201d1012383617d
:103344002000fff79dfe60602000fff799fea0605b
:103354002000fff795fe0022e0600421606800f081
:1033640067fa01220921a06800f062fa0222122100
:10337400e06800f05dfa0123a36113bd544400002a
:04338400a943000059
:020000040000fa
:1033880002780023042a01d0180070474278072adf
:1033980020d0d3b2072b0ad8012a19d0f2b1d223f0
:1033a800032af1d0d623052aeed0e123ece70f2a31
:1033b80012d0d3b20f2b07d9f323112ae4d0d2b2fb
:1033c800d423ff2ae0d0f0e7fa23082adcd0ece780
:1033d800d123d9e7d723d7e7f423d5e70023d3e7c9
:020000040000fa
:1033e80030b540f2fe340b034a0005001b0b520daa
:1033f800c90f0020a24205dd40f21d40824202ddd5
:103408000d4bc81830bd802040f2334440030343bd
:10341800a41a1f2c09dc0948e5401218934018002b
:1034280028430029eed04042ece740f21340821acc
:10343800d3401800f5e7c046ffffff7fedfbffff15
:020000040000fa
:103448000122134b1a601a00d369002bfcd140f2f9
:1034580000120f4b5a601a00d369002bfcd10c4b99
:103468009922da600b4a1a601a00d369002bfcd142
:103478001022074b5a831a00d369002bfcd1064b44
:1034880000225a771a778322014b9a757047c046f3
:0c3498000008004216001000c8020020ce
:020000040000fa
:1034a40010b5144a137801210b4313701100012243
:1034b4004b681a42fcd10f4990231b04cb61202096
:1034c40008610d4b10221a721a751a542c201a54c2
:1034d40038201a54052444201c5450201a545c20cb
:1034e4001a540b78022213430b704b681a42fcd116
:0c34f40010bdc046002a0040340000203b
:020000040000fa
:10350000f8b50e00170000f09dff0500f8b1c46a81
:10351000fcb1032333700137a36898470028fbd11f
:10352000287940083a003100636898470300f0208a
:1035300003b9f8bda36898470028fbd1e368984712
:103540000300f0205a1e93415b421840f1e7e2204d
:06355000efe7e220ede7c9
:020000040000fa
:1035560030b583b000f073ff050000b3c46a04b34e
:10356600022201ab1a70a36898470028fbd128797c
:103576004008012201a9636898470300f0200bb9af
:1035860003b030bda36898470028fbd1e36898478d
:103596000300f0205a1e93415b421840f0e7e220f8
:0635a600eee7e220ece775
:020000040000fa
:1035ac0030b583b000f048ff050000b3c46a04b323
:1035bc00012201ab1a70a36898470028fbd1287927
:1035cc004008012201a9636898470300f0200bb959
:1035dc0003b030bda36898470028fbd1e368984737
:1035ec000300f0205a1e93415b421840f0e7e220a2
:0635fc00eee7e220ece71f
:020000040000fa
:02360200fee7e1
:020000040000fa
:1036040070b582b005000e00114c0422210001a8ff
:1036140000f07efe211d0422684600f079fed020d1
:10362400042e01d002b070bd042201a9280000f0cc
:103634006efd03000020002bf4d00422694628000c
:1036440000f065fd0300d720002bebd0d020e9e784
:04365400f843000037
:020000040000fa
:103658000b6970b505000c000bb9002070bd18b1de
:1036680083690bb9fff75afe0b4b9c4209d16c6872
:103678000c22a35e002bf0d021002800fef70cfce2
:10368800ece7064b9c4201d1ac68f1e7044b9c4245
:10369800eed1ec68ece7c0465440000074400000ee
:0436a80034400000aa
:020000040000fa
:1036ac0010b50c4b03b198470b4b03b19847fff780
:1036bc00a7fb0a4a7f210a4b8b439360094b98471f
:1036cc00094b03b19847094b03b19847fef76efdc0
:1036dc00fee7c046000000000000000000ed00e026
:1036ec0000000000ed3700000000000000000000aa
:020000040000fa
:1036fc00f0b5c64600b5104d0424104e012705e068
:10370c00434673610c350134082c11d02b0038332f
:10371c001a78e3b29a42f5d173693a00a240904606
:10372c001a42efd02b6b002bead0686b9847e7e777
:10373c0004bc9046f0bdc04634000020002a004076
:020000040000fa
:10374c000378f02003b17047094b0b60094b4b60b9
:10375c00094bcb60094b8b60094b8b61094b0b619f
:10376c00094b4b61094bcb6100230b620020eae74c
:10377c00494400004d4400001526000001350000ae
:10378c00ad350000152900005735000051440000ec
:020000040000fa
:10379c0070b50e001d000e23c95e90b014000029f8
:1037ac0007da00232b60b3891b0611d440f20043c7
:1037bc000fe001aa00f0d0fb0028f2db4ff2000270
:1037cc00029b1340054a9b185a4253412b60ede76c
:1037dc0040230020236010b070bdc04600e0ffff06
:020000040000fa
:1037ec0070b500260c4d0d4c641ba410a64209d1db
:1037fc000026fcf779fc0a4d0a4c641ba410a64267
:10380c0005d170bdb300eb5898470136eee7b30015
:10381c00eb5898470136f2e7000100000001000068
:08382c0000010000040100008e
:020000040000fa
:10383400002310b504000360436083608181036644
:10384400c28103614361836119000822583000f08a
:10385400a1fd054b24626362044ba362044be36243
:10386400044b236310bdc046613e0000293b0000a9
:08387400b53d0000c543000052
:020000040000fa
:10387c00f8b50d00096e06001400d718890418d588
:10388c009f08bf00d719bc4201d1002008e02a00d4
:10389c0002cc300000f046fc431cf4d10120404225
:1038ac00f8bd21782a00300000f0aafa0134431c3c
:0838bc00f4d0bc42f5d1e8e7ad
:020000040000fa
:1038c4007fb51d000d4b04001b681b6a81b903b949
:1038d4000b4be0331e6800222b0001a92000b047e7
:1038e400431c03d100232b608a23236004b070bde2
:1038f40003b9034be0331e682b00efe728030020d5
:04390400cc000020d3
:020000040000fa
:1039080010b5054c237833b9044b13b1044800e0d3
:1039180000bf0123237010bdf0020020000000004a
:1039280000000000034b10b51bb10349034800e039
:1039380000bf10bd00000000f402002000000000dd
:020000040000fa
:1039480010b5029c44b10324204038b102280dd0a0
:10395800012803d0e22012e0e22010e0d200072084
:1039680003401a43029b1a80002008e0c900072080
:1039780003400b4312021a43029b1a80002010bd19
:020000040000fa
:10398800f7b5040007000026019148340cb930004f
:10399800febd6368a5680093009b013b009301d5b9
:1039a8002468f3e7ab89012b08d90e22ab5e0133fb
:1039b80004d029003800019b984706436435ebe79b
:020000040000fa
:1039c80030b58bb00500e22458b12023019302ab37
:1039d80000930023002200210020fff79df8040037
:1039e80010b120000bb030bd042202a9280000f05d
:0e39f8008dfc281d052204a900f088fcf1e7d3
:020000040000fa
:023a0600fee7d9
:020000040000fa
:103a080070b505000c00a8b100f044f900200a4a7e
:103a180004210726a04208d0137e0b42fcd0138d48
:103a28002b540130538b3342f4d0001b434258418e
:0c3a3800c0b270bd0020fce7000400429a
:020000040000fa
:103a44001c2101231b04984201d3000c10391b0aca
:103a5400984201d3000a08391b09984201d300098e
:103a6400043902a2105c40187047c04604030202e5
:0c3a740001010101000000000000000042
:020000040000fa
:103a80000a4b0b4a1a600b4a9a81c02292025a6072
:103a90001a00d369002bfcd1044a136802210b439e
:103aa0001360d369002bfcd17047c046000400426c
:083ab0000401314041f1ffff68
:020000040000fa
:103ab80010b504220b4b5a6000f02cfa00f084f881
:103ac800fef762fc00f02cfcfff7bafcfef701fee3
:103ad800fff7d2ff00f00cfafff7e0fcfff714fa4b
:083ae80010bdc0460040004182
:020000040000fa
:103af00070b500220b4b04000d00fff77bfa58b1a4
:103b0000084b002220002900fcf7d4fdfff76cfcd5
:103b100080231b06c01870bd20002900fff764fc3d
:083b2000f9e7c0460000e04196
:020000040000fa
:103b2800f8b51f008b8905000c001600db0505d5cc
:103b38000e23c95e0022022300f022faa389054a57
:103b480028001340a38132000e23e15e3b0000f001
:083b5800f3f9f8bdffefffffd8
:020000040000fa
:103b600070b50c00002519b112b11500022801d959
:103b7000280070bd074b23b11100200000e000bffa
:103b8000f6e716002078013e00f019fb0134002e04
:083b9000f8d1ede70000000090
:020000040000fa
:103b980070b582b005000478023ce4b201ae320090
:103ba80001002000fff786fb32782b5de5209a4262
:103bb80001d002b070bd2c1901ab5a7863789a42d3
:063bc800f7d10020f5e733
:020000040000fa
:023bce0070473e
:020000040000fa
:103bd0000b4b80221a60802212051a6101225021ab
:103be0005a5451215a5458215a5459215a54052192
:103bf0005b229954222238215a543c215a5470474e
:043c0000003200404e
:020000040000fa
:103c0400303132333435363738394142434445460e
:103c140000303132333435363738396162636465a4
:103c24006600232d302b2000686c4c0065666745c8
:033c340046470000
:020000040000fa
:103c380070b505000c0070b179b1096879b1e2205e
:103c480063684bb1687800f07bfb28b9616828008d
:103c580000f04cfa00e0e22070bde220fce7e22030
:023c6800fae779
:020000040000fa
:023c6a007047a1
:020000040000fa
:103c6c0010b50400094b1b7f002003b110bd074b9e
:103c7c001c8099601a6100225a60da605a7701211f
:103c8c002000fff701f90120f0e7c046c802002030
:020000040000fa
:103c9c000a4b588b0723184000b97047074b8022fa
:103cac001a7607225a831b7e5b07f6d5034b042139
:103cbc001a8d1a7e0a42fbd1efe7c046000400427f
:020000040000fa
:103ccc0030b570b179b105004118084a0124137e52
:103cdc002342fcd02b7813850135a942f7d1012062
:103cec0030bd0020fce70120fae7c046000400428a
:020000040000fa
:103cfc00094b1b68db439b0700d07047074b996847
:103d0c0040f2e8335843b0fbf3f0044a93685b1a73
:103d1c009842fbd8f1e7c04610e000e028000020f4
:020000040000fa
:103d2c0070b504000d004068fff70afd2b68a36016
:103d3c006b68e360ab682361eb6863612b69a3611b
:103d4c00ab6923626b69e3612b6a6362002070bd0f
:020000040000fa
:103d5c0010b50400084b1b7f002003b110bd064baf
:103d6c001c80986018615960da6058770021200037
:0c3d7c00fff78af80120f1e7c8020020e0
:020000040000fa
:103d880070b564254a1e55430e0029007031fef7b0
:103d98005ffd040040b100212a00016046600c303c
:0c3da800a060643200f0f4fa200070bd4e
:020000040000fa
:103db40070b50c000e25495f00f0e4f8a389421c9d
:103dc40003d1054a1340a38170bd41f2000213439d
:0c3dd400a3816065f8e7c046ffefffff29
:020000040000fa
:103de000074a13684bb107491818884202d8106077
:103df0001800704701204042fbe7034b1360f2e7d5
:0c3e000034030020400500204003002097
:020000040000fa
:103e0c00936810b5013b9360002b05da9469a342cb
:103e1c0008dbcbb20a2b05d01368581c1060197044
:0a3e2c00c8b210bdfef754fcfbe71e
:020000040000fa
:103e380030b543001b189b00064ce3181b7a8342dd
:103e480000d030bd43001d18ad00295160194260f3
:083e5800f7e7c046340000202a
:020000040000fa
:103e600070b50c000e25495f00f0a0f8002803dbb8
:103e7000636d1b18636570bda389024a1340a3815b
:083e8000f9e7c046ffefffff68
:020000040000fa
:103e880010b58ab0040001a9fff74cff616801a8ca
:103e9800a368984708b10ab010bd099b6362e3683c
:063ea80020009847f7e737
:020000040000fa
:103eae0030b583b00d0000f0c6fa50b1c46a44b10b
:103ebe000195a36898470028fbd12369002101a82a
:063ece00984703b030bd6f
:020000040000fa
:103ed400064b1b7f01203bb9054b588b3023184000
:103ee4001038431e9841c0b27047c046c802002033
:043ef4000008004280
:020000040000fa
:103ef800064a00231360936047f6ff41516006218c
:103f08001160034a936013607047c04610e000e0f8
:043f1800280000205d
:020000040000fa
:103f1c00074b00221a819a7901210a439a710222d5
:103f2c009a70190001228b791342fcd07047c0465d
:043f3c00000400403d
:020000040000fa
:103f400070b50500080011000022054c22601a001f
:103f500000f06afa431c02d1236803b12b6070bde4
:043f6000c800002075
:020000040000fa
:103f6400002370b5064c050008001100236000f022
:103f740049fa431c02d1236803b12b6070bdc046cb
:043f8400c800002051
:020000040000fa
:103f880070b50500080011000022054c22601a00d7
:103f980000f03efa431c02d1236803b12b6070bdc8
:043fa800c80000202d
:020000040000fa
:103fac0070b50500080011000022054c22601a00b3
:103fbc0000f030fa431c02d1236803b12b6070bdb2
:043fcc00c800002009
:020000040000fa
:103fd00070b5002661b15ab1160048b90c00150041
:103fe000012000f0dff8013d20700134002df7d1f1
:043ff000300070bd70
:020000040000fa
:103ff40082b001b901a910002ab133b113780b6062
:104004001078431e984102b0704702204042fae7fc
:020000040000fa
:104014000fb407b5054b04aa1b6802ca986801923d
:1040240000f0fcf803b008bc04b0184728030020d3
:020000040000fa
:10403400000000000000000000000000000000007c
:10404400000000000000000000000000000000006c
:020000040000fa
:10405400000000000000000000000000000000005c
:10406400000000000000000000000000000000004c
:020000040000fa
:10407400000000000000000000000000000000003c
:10408400000000000000000000000000000000002c
:020000040000fa
:10409400002370b5054c050008002360fff79efe61
:1040a400431c02d1236803b12b6070bdc8000020fb
:020000040000fa
:1040b400002370b5054c05000800236000f09ef94c
:1040c400431c02d1236803b12b6070bdc8000020db
:020000040000fa
:1040d400002370b5054c05000800236000f096f934
:1040e400431c02d1236803b12b6070bdc8000020bb
:020000040000fa
:1040f40010b550b1e22331b103780b704860080069
:0e410400fff7c0fe0300180010bde223fbe72a
:020000040000fa
:1041120030b50024a24201d1002005e0035d651cf8
:0e4122000c5da34201d0181b30bd2c00f2e74b
:020000040000fa
:1041300010b50c23d45e42f200031c4204d11c4390
:0e4140009481146e23431366fef75eff10bddc
:020000040000fa
:1041500010b5054b9a6801329a601b6813b1024a88
:0c4160005068984710bdc04628000020a1
:020000040000fa
:10416c0010b5040083699847d02800d010bd1920e1
:0c417c0000f004f9a36920009847f7e761
:020000040000fa
:10418800044b1b681b6a03b9034b40f22812985c66
:0c4198007047c04628030020cc00002027
:020000040000fa
:1041a40000b583b000230193012101a8fff72afc85
:0a41b4000028f9d0019803b000bd07
:020000040000fa
:1041be0000b583b06b46d87101216b46d81dfff751
:0a41ce007efd0028f8d003b000bd0c
:020000040000fa
:1041d80010b5044b186800f0bbf810b90022014b69
:0841e8001a6010bd2403002041
:020000040000fa
:1041f000034b1b681b6a03b9024bec33186870470a
:0842000028030020cc0000207f
:020000040000fa
:104208000b0021b1ff2a04d98a2303608b3b1800d5
:0842180070470a700123fae768
:020000040000fa
:1042200010b513000a00010002480068fcf71effe9
:0842300010bdc0462803002068
:020000040000fa
:1042380010b50400e2202cb12078616a00f090f8f3
:064248000023636210bdbb
:020000040000fa
:10424e00c9b28218904201d10020704703788b4288
:06425e00fbd00130f6e781
:020000040000fa
:10426400034b00229a601a6801210a431a607047be
:0442740010e000e076
:020000040000fa
:1042780010b584b00124029401940094fdf740fd28
:0442880004b010bdb1
:020000040000fa
:10428c0010b502238b7007234b70080000f02af83e
:04429c00002010bd31
:020000040000fa
:1042a00003008000c018800101380a23b0fbf3f03e
:0442b0000130704722
:020000040000fa
:1042b40002b4714649084900095c49008e4402bcb5
:1042c4007047c04603b47146490840004900095a82
:0842d40049008e4403bc704751
:020000040000fa
:1042dc0010b5034b01001868fef72cf910bdc04651
:0442ec002803002083
:020000040000fa
:1042f00010b5411c40780238c0b20a18fef7deff44
:0243000010bdee
:020000040000fa
:1043020010b5c36998470400012000f03cf8200072
:0243120010bddc
:020000040000fa
:10431400002310b59a4200d110bdcc5cc4540133c3
:02432400f8e7b8
:020000040000fa
:10432800024b02225a6001221a7270470050004163
:020000040000fa
:1043380010b50248fff7ceff10bdc0464817000071
:020000040000fa
:1043480021b1087000234b7000207047e220fce781
:020000040000fa
:1043580010b50300e22013b15868fff769ff10bddc
:020000040000fa
:1043680010b508b1e12010bd080000f06df8fae7bb
:020000040000fa
:1043780010b5fff791ff0100002000f059f810bdbb
:020000040000fa
:1043880010b547f600514143002000f051f810bd28
:020000040000fa
:1043980003008218934200d1704719700133f9e77e
:020000040000fa
:1043a80010b50249fff7ecfa10bdc04659360000b7
:020000040000fa
:0c43b800014b587fc0b27047c8020020c3
:020000040000fa
:0c43c40010b50e23c95efff773fe10bd9c
:020000040000fa
:0c43d00042f2000300204b607047c04622
:020000040000fa
:0b43dc004300504f53495800002e00d2
:020000040000fa
:0843e80010b50369984710bdf0
:020000040000fa
:0843f00010b54369984710bda8
:020000040000fa
:0843f800041133430407c44023
:020000040000fa
:0844000010b500f015f810bd25
:020000040000fa
:0844080010b5fff7e1ff10bd44
:020000040000fa
:0844100010b500f021f810bd09
:020000040000fa
:0844180010b500f01ff810bd03
:020000040000fa
:0844200010b5fff7d5fd10bd3a
:020000040000fa
:0844280010b5fff799fb10bd70
:020000040000fa
:08443000012040427047c04624
:020000040000fa
:064438000139fdd87047b8
:020000040000fa
:044440000d0a000061
:020000040000fa
:044444004068704715
:020000040000fa
:044448000020704799
:020000040000fa
:04444c000020704795
:020000040000fa
:044450000020704791
:020000040000fa
:04445400380200200a
:020000040000fa
:044458000120704788
:020000040000fa
:04445c000020704785
:020000040000fa
:0200000400807a
:044000007f43ffb14a
:020000040000fa
:0200000400807a
:04400400bbfcffff03
:00000001FF
